{
  "_format": "hh-sol-artifact-1",
  "contractName": "OnChainNFT",
  "sourceName": "contracts/OnChainNFT.sol",
  "abi": [
    {
      "inputs": [],
      "stateMutability": "nonpayable",
      "type": "constructor"
    },
    {
      "anonymous": false,
      "inputs": [
        {
          "indexed": true,
          "internalType": "address",
          "name": "owner",
          "type": "address"
        },
        {
          "indexed": true,
          "internalType": "address",
          "name": "approved",
          "type": "address"
        },
        {
          "indexed": true,
          "internalType": "uint256",
          "name": "tokenId",
          "type": "uint256"
        }
      ],
      "name": "Approval",
      "type": "event"
    },
    {
      "anonymous": false,
      "inputs": [
        {
          "indexed": true,
          "internalType": "address",
          "name": "owner",
          "type": "address"
        },
        {
          "indexed": true,
          "internalType": "address",
          "name": "operator",
          "type": "address"
        },
        {
          "indexed": false,
          "internalType": "bool",
          "name": "approved",
          "type": "bool"
        }
      ],
      "name": "ApprovalForAll",
      "type": "event"
    },
    {
      "anonymous": false,
      "inputs": [
        {
          "indexed": true,
          "internalType": "address",
          "name": "previousOwner",
          "type": "address"
        },
        {
          "indexed": true,
          "internalType": "address",
          "name": "newOwner",
          "type": "address"
        }
      ],
      "name": "OwnershipTransferred",
      "type": "event"
    },
    {
      "anonymous": false,
      "inputs": [
        {
          "indexed": true,
          "internalType": "address",
          "name": "from",
          "type": "address"
        },
        {
          "indexed": true,
          "internalType": "address",
          "name": "to",
          "type": "address"
        },
        {
          "indexed": true,
          "internalType": "uint256",
          "name": "tokenId",
          "type": "uint256"
        }
      ],
      "name": "Transfer",
      "type": "event"
    },
    {
      "inputs": [
        {
          "internalType": "address",
          "name": "to",
          "type": "address"
        },
        {
          "internalType": "uint256",
          "name": "tokenId",
          "type": "uint256"
        }
      ],
      "name": "approve",
      "outputs": [],
      "stateMutability": "nonpayable",
      "type": "function"
    },
    {
      "inputs": [
        {
          "internalType": "address",
          "name": "owner",
          "type": "address"
        }
      ],
      "name": "balanceOf",
      "outputs": [
        {
          "internalType": "uint256",
          "name": "",
          "type": "uint256"
        }
      ],
      "stateMutability": "view",
      "type": "function"
    },
    {
      "inputs": [
        {
          "internalType": "uint256",
          "name": "tokenId",
          "type": "uint256"
        }
      ],
      "name": "getApproved",
      "outputs": [
        {
          "internalType": "address",
          "name": "",
          "type": "address"
        }
      ],
      "stateMutability": "view",
      "type": "function"
    },
    {
      "inputs": [],
      "name": "getLatestTokenId",
      "outputs": [
        {
          "internalType": "uint256",
          "name": "",
          "type": "uint256"
        }
      ],
      "stateMutability": "view",
      "type": "function"
    },
    {
      "inputs": [
        {
          "internalType": "address",
          "name": "owner",
          "type": "address"
        },
        {
          "internalType": "address",
          "name": "operator",
          "type": "address"
        }
      ],
      "name": "isApprovedForAll",
      "outputs": [
        {
          "internalType": "bool",
          "name": "",
          "type": "bool"
        }
      ],
      "stateMutability": "view",
      "type": "function"
    },
    {
      "inputs": [
        {
          "internalType": "address",
          "name": "recipient",
          "type": "address"
        },
        {
          "internalType": "string",
          "name": "tokenURI",
          "type": "string"
        }
      ],
      "name": "mintNFT",
      "outputs": [
        {
          "internalType": "uint256",
          "name": "",
          "type": "uint256"
        }
      ],
      "stateMutability": "nonpayable",
      "type": "function"
    },
    {
      "inputs": [],
      "name": "name",
      "outputs": [
        {
          "internalType": "string",
          "name": "",
          "type": "string"
        }
      ],
      "stateMutability": "view",
      "type": "function"
    },
    {
      "inputs": [],
      "name": "owner",
      "outputs": [
        {
          "internalType": "address",
          "name": "",
          "type": "address"
        }
      ],
      "stateMutability": "view",
      "type": "function"
    },
    {
      "inputs": [
        {
          "internalType": "uint256",
          "name": "tokenId",
          "type": "uint256"
        }
      ],
      "name": "ownerOf",
      "outputs": [
        {
          "internalType": "address",
          "name": "",
          "type": "address"
        }
      ],
      "stateMutability": "view",
      "type": "function"
    },
    {
      "inputs": [],
      "name": "renounceOwnership",
      "outputs": [],
      "stateMutability": "nonpayable",
      "type": "function"
    },
    {
      "inputs": [
        {
          "internalType": "address",
          "name": "from",
          "type": "address"
        },
        {
          "internalType": "address",
          "name": "to",
          "type": "address"
        },
        {
          "internalType": "uint256",
          "name": "tokenId",
          "type": "uint256"
        }
      ],
      "name": "safeTransferFrom",
      "outputs": [],
      "stateMutability": "nonpayable",
      "type": "function"
    },
    {
      "inputs": [
        {
          "internalType": "address",
          "name": "from",
          "type": "address"
        },
        {
          "internalType": "address",
          "name": "to",
          "type": "address"
        },
        {
          "internalType": "uint256",
          "name": "tokenId",
          "type": "uint256"
        },
        {
          "internalType": "bytes",
          "name": "_data",
          "type": "bytes"
        }
      ],
      "name": "safeTransferFrom",
      "outputs": [],
      "stateMutability": "nonpayable",
      "type": "function"
    },
    {
      "inputs": [
        {
          "internalType": "address",
          "name": "operator",
          "type": "address"
        },
        {
          "internalType": "bool",
          "name": "approved",
          "type": "bool"
        }
      ],
      "name": "setApprovalForAll",
      "outputs": [],
      "stateMutability": "nonpayable",
      "type": "function"
    },
    {
      "inputs": [
        {
          "internalType": "bytes4",
          "name": "interfaceId",
          "type": "bytes4"
        }
      ],
      "name": "supportsInterface",
      "outputs": [
        {
          "internalType": "bool",
          "name": "",
          "type": "bool"
        }
      ],
      "stateMutability": "view",
      "type": "function"
    },
    {
      "inputs": [],
      "name": "symbol",
      "outputs": [
        {
          "internalType": "string",
          "name": "",
          "type": "string"
        }
      ],
      "stateMutability": "view",
      "type": "function"
    },
    {
      "inputs": [
        {
          "internalType": "uint256",
          "name": "tokenId",
          "type": "uint256"
        }
      ],
      "name": "tokenURI",
      "outputs": [
        {
          "internalType": "string",
          "name": "",
          "type": "string"
        }
      ],
      "stateMutability": "view",
      "type": "function"
    },
    {
      "inputs": [
        {
          "internalType": "address",
          "name": "from",
          "type": "address"
        },
        {
          "internalType": "address",
          "name": "to",
          "type": "address"
        },
        {
          "internalType": "uint256",
          "name": "tokenId",
          "type": "uint256"
        }
      ],
      "name": "transferFrom",
      "outputs": [],
      "stateMutability": "nonpayable",
      "type": "function"
    },
    {
      "inputs": [
        {
          "internalType": "address",
          "name": "newOwner",
          "type": "address"
        }
      ],
      "name": "transferOwnership",
      "outputs": [],
      "stateMutability": "nonpayable",
      "type": "function"
    }
  ],
  "bytecode": "0x60806040523480156200001157600080fd5b506040518060400160405280600a81526020017f4f6e436861696e4e4654000000000000000000000000000000000000000000008152506040518060400160405280600381526020017f4e4654000000000000000000000000000000000000000000000000000000000081525081600090805190602001906200009692919062000249565b508060019080519060200190620000af92919062000249565b505050620000d2620000c66200017b60201b60201c565b6200018360201b60201c565b73fcf181ddb07d3a0515f2325d455aa234e670b248600960006101000a81548173ffffffffffffffffffffffffffffffffffffffff021916908373ffffffffffffffffffffffffffffffffffffffff1602179055506040518060400160405280601d81526020017f646174613a6170706c69636174696f6e2f6a736f6e3b6261736536342c000000815250600a90805190602001906200017492919062000249565b506200035e565b600033905090565b6000600760009054906101000a900473ffffffffffffffffffffffffffffffffffffffff16905081600760006101000a81548173ffffffffffffffffffffffffffffffffffffffff021916908373ffffffffffffffffffffffffffffffffffffffff1602179055508173ffffffffffffffffffffffffffffffffffffffff168173ffffffffffffffffffffffffffffffffffffffff167f8be0079c531659141344cd1fd0a4f28419497f9722a3daafe3b4186f6b6457e060405160405180910390a35050565b8280546200025790620002f9565b90600052602060002090601f0160209004810192826200027b5760008555620002c7565b82601f106200029657805160ff1916838001178555620002c7565b82800160010185558215620002c7579182015b82811115620002c6578251825591602001919060010190620002a9565b5b509050620002d69190620002da565b5090565b5b80821115620002f5576000816000905550600101620002db565b5090565b600060028204905060018216806200031257607f821691505b602082108114156200032957620003286200032f565b5b50919050565b7f4e487b7100000000000000000000000000000000000000000000000000000000600052602260045260246000fd5b6135cd806200036e6000396000f3fe608060405234801561001057600080fd5b50600436106101165760003560e01c8063715018a6116100a2578063b88d4fde11610071578063b88d4fde146102cd578063c87b56dd146102e9578063e985e9c514610319578063eacabe1414610349578063f2fde38b1461037957610116565b8063715018a61461026b5780638da5cb5b1461027557806395d89b4114610293578063a22cb465146102b157610116565b806323b872dd116100e957806323b872dd146101b557806325d112a9146101d157806342842e0e146101ef5780636352211e1461020b57806370a082311461023b57610116565b806301ffc9a71461011b57806306fdde031461014b578063081812fc14610169578063095ea7b314610199575b600080fd5b6101356004803603810190610130919061233b565b610395565b60405161014291906128e9565b60405180910390f35b610153610477565b6040516101609190612904565b60405180910390f35b610183600480360381019061017e919061238d565b610509565b604051610190919061284b565b60405180910390f35b6101b360048036038101906101ae91906122d6565b61058e565b005b6101cf60048036038101906101ca919061217c565b6106a6565b005b6101d9610706565b6040516101e69190612ba6565b60405180910390f35b6102096004803603810190610204919061217c565b610717565b005b6102256004803603810190610220919061238d565b610737565b604051610232919061284b565b60405180910390f35b61025560048036038101906102509190612117565b6107e9565b6040516102629190612ba6565b60405180910390f35b6102736108a1565b005b61027d610929565b60405161028a919061284b565b60405180910390f35b61029b610953565b6040516102a89190612904565b60405180910390f35b6102cb60048036038101906102c69190612246565b6109e5565b005b6102e760048036038101906102e291906121cb565b6109fb565b005b61030360048036038101906102fe919061238d565b610a5d565b6040516103109190612904565b60405180910390f35b610333600480360381019061032e9190612140565b610baf565b60405161034091906128e9565b60405180910390f35b610363600480360381019061035e9190612282565b610c43565b6040516103709190612ba6565b60405180910390f35b610393600480360381019061038e9190612117565b610ecb565b005b60007f80ac58cd000000000000000000000000000000000000000000000000000000007bffffffffffffffffffffffffffffffffffffffffffffffffffffffff1916827bffffffffffffffffffffffffffffffffffffffffffffffffffffffff1916148061046057507f5b5e139f000000000000000000000000000000000000000000000000000000007bffffffffffffffffffffffffffffffffffffffffffffffffffffffff1916827bffffffffffffffffffffffffffffffffffffffffffffffffffffffff1916145b80610470575061046f82610fc3565b5b9050919050565b60606000805461048690612e23565b80601f01602080910402602001604051908101604052809291908181526020018280546104b290612e23565b80156104ff5780601f106104d4576101008083540402835291602001916104ff565b820191906000526020600020905b8154815290600101906020018083116104e257829003601f168201915b5050505050905090565b60006105148261102d565b610553576040517f08c379a000000000000000000000000000000000000000000000000000000000815260040161054a90612ae6565b60405180910390fd5b6004600083815260200190815260200160002060009054906101000a900473ffffffffffffffffffffffffffffffffffffffff169050919050565b600061059982610737565b90508073ffffffffffffffffffffffffffffffffffffffff168373ffffffffffffffffffffffffffffffffffffffff16141561060a576040517f08c379a000000000000000000000000000000000000000000000000000000000815260040161060190612b66565b60405180910390fd5b8073ffffffffffffffffffffffffffffffffffffffff16610629611099565b73ffffffffffffffffffffffffffffffffffffffff161480610658575061065781610652611099565b610baf565b5b610697576040517f08c379a000000000000000000000000000000000000000000000000000000000815260040161068e906129e6565b60405180910390fd5b6106a183836110a1565b505050565b6106b76106b1611099565b8261115a565b6106f6576040517f08c379a00000000000000000000000000000000000000000000000000000000081526004016106ed90612b86565b60405180910390fd5b610701838383611238565b505050565b60006107126008611494565b905090565b610732838383604051806020016040528060008152506109fb565b505050565b6000806002600084815260200190815260200160002060009054906101000a900473ffffffffffffffffffffffffffffffffffffffff169050600073ffffffffffffffffffffffffffffffffffffffff168173ffffffffffffffffffffffffffffffffffffffff1614156107e0576040517f08c379a00000000000000000000000000000000000000000000000000000000081526004016107d790612a26565b60405180910390fd5b80915050919050565b60008073ffffffffffffffffffffffffffffffffffffffff168273ffffffffffffffffffffffffffffffffffffffff16141561085a576040517f08c379a000000000000000000000000000000000000000000000000000000000815260040161085190612a06565b60405180910390fd5b600360008373ffffffffffffffffffffffffffffffffffffffff1673ffffffffffffffffffffffffffffffffffffffff168152602001908152602001600020549050919050565b6108a9611099565b73ffffffffffffffffffffffffffffffffffffffff166108c7610929565b73ffffffffffffffffffffffffffffffffffffffff161461091d576040517f08c379a000000000000000000000000000000000000000000000000000000000815260040161091490612b06565b60405180910390fd5b61092760006114a2565b565b6000600760009054906101000a900473ffffffffffffffffffffffffffffffffffffffff16905090565b60606001805461096290612e23565b80601f016020809104026020016040519081016040528092919081815260200182805461098e90612e23565b80156109db5780601f106109b0576101008083540402835291602001916109db565b820191906000526020600020905b8154815290600101906020018083116109be57829003601f168201915b5050505050905090565b6109f76109f0611099565b8383611568565b5050565b610a0c610a06611099565b8361115a565b610a4b576040517f08c379a0000000000000000000000000000000000000000000000000000000008152600401610a4290612b86565b60405180910390fd5b610a57848484846116d5565b50505050565b6060610a688261102d565b610aa7576040517f08c379a0000000000000000000000000000000000000000000000000000000008152600401610a9e90612ac6565b60405180910390fd5b6000600660008481526020019081526020016000208054610ac790612e23565b80601f0160208091040260200160405190810160405280929190818152602001828054610af390612e23565b8015610b405780601f10610b1557610100808354040283529160200191610b40565b820191906000526020600020905b815481529060010190602001808311610b2357829003601f168201915b505050505090506000610b51611731565b9050600081511415610b67578192505050610baa565b600082511115610b9c578082604051602001610b84929190612810565b60405160208183030381529060405292505050610baa565b610ba584611748565b925050505b919050565b6000600560008473ffffffffffffffffffffffffffffffffffffffff1673ffffffffffffffffffffffffffffffffffffffff16815260200190815260200160002060008373ffffffffffffffffffffffffffffffffffffffff1673ffffffffffffffffffffffffffffffffffffffff16815260200190815260200160002060009054906101000a900460ff16905092915050565b6000670de0b6b3a7640000600960009054906101000a900473ffffffffffffffffffffffffffffffffffffffff1673ffffffffffffffffffffffffffffffffffffffff166370a08231336040518263ffffffff1660e01b8152600401610ca9919061284b565b60206040518083038186803b158015610cc157600080fd5b505afa158015610cd5573d6000803e3d6000fd5b505050506040513d601f19601f82011682018060405250810190610cf991906123b6565b1015610d3a576040517f08c379a0000000000000000000000000000000000000000000000000000000008152600401610d3190612a66565b60405180910390fd5b6000610d49836000601d6117ef565b9050600a604051602001610d5d9190612834565b6040516020818303038152906040528051906020012081604051602001610d8491906127f9565b6040516020818303038152906040528051906020012014610dda576040517f08c379a0000000000000000000000000000000000000000000000000000000008152600401610dd190612a86565b60405180910390fd5b600960009054906101000a900473ffffffffffffffffffffffffffffffffffffffff1673ffffffffffffffffffffffffffffffffffffffff166323b872dd3330670de0b6b3a76400006040518463ffffffff1660e01b8152600401610e4193929190612866565b602060405180830381600087803b158015610e5b57600080fd5b505af1158015610e6f573d6000803e3d6000fd5b505050506040513d601f19601f82011682018060405250810190610e939190612312565b50610e9e600861195d565b6000610eaa6008611494565b9050610eb68582611973565b610ec08185611b41565b809250505092915050565b610ed3611099565b73ffffffffffffffffffffffffffffffffffffffff16610ef1610929565b73ffffffffffffffffffffffffffffffffffffffff1614610f47576040517f08c379a0000000000000000000000000000000000000000000000000000000008152600401610f3e90612b06565b60405180910390fd5b600073ffffffffffffffffffffffffffffffffffffffff168173ffffffffffffffffffffffffffffffffffffffff161415610fb7576040517f08c379a0000000000000000000000000000000000000000000000000000000008152600401610fae90612946565b60405180910390fd5b610fc0816114a2565b50565b60007f01ffc9a7000000000000000000000000000000000000000000000000000000007bffffffffffffffffffffffffffffffffffffffffffffffffffffffff1916827bffffffffffffffffffffffffffffffffffffffffffffffffffffffff1916149050919050565b60008073ffffffffffffffffffffffffffffffffffffffff166002600084815260200190815260200160002060009054906101000a900473ffffffffffffffffffffffffffffffffffffffff1673ffffffffffffffffffffffffffffffffffffffff1614159050919050565b600033905090565b816004600083815260200190815260200160002060006101000a81548173ffffffffffffffffffffffffffffffffffffffff021916908373ffffffffffffffffffffffffffffffffffffffff160217905550808273ffffffffffffffffffffffffffffffffffffffff1661111483610737565b73ffffffffffffffffffffffffffffffffffffffff167f8c5be1e5ebec7d5bd14f71427d1e84f3dd0314c0f7b2291e5b200ac8c7c3b92560405160405180910390a45050565b60006111658261102d565b6111a4576040517f08c379a000000000000000000000000000000000000000000000000000000000815260040161119b906129c6565b60405180910390fd5b60006111af83610737565b90508073ffffffffffffffffffffffffffffffffffffffff168473ffffffffffffffffffffffffffffffffffffffff16148061121e57508373ffffffffffffffffffffffffffffffffffffffff1661120684610509565b73ffffffffffffffffffffffffffffffffffffffff16145b8061122f575061122e8185610baf565b5b91505092915050565b8273ffffffffffffffffffffffffffffffffffffffff1661125882610737565b73ffffffffffffffffffffffffffffffffffffffff16146112ae576040517f08c379a00000000000000000000000000000000000000000000000000000000081526004016112a590612b26565b60405180910390fd5b600073ffffffffffffffffffffffffffffffffffffffff168273ffffffffffffffffffffffffffffffffffffffff16141561131e576040517f08c379a000000000000000000000000000000000000000000000000000000000815260040161131590612986565b60405180910390fd5b611329838383611bb5565b6113346000826110a1565b6001600360008573ffffffffffffffffffffffffffffffffffffffff1673ffffffffffffffffffffffffffffffffffffffff16815260200190815260200160002060008282546113849190612d27565b925050819055506001600360008473ffffffffffffffffffffffffffffffffffffffff1673ffffffffffffffffffffffffffffffffffffffff16815260200190815260200160002060008282546113db9190612ca0565b92505081905550816002600083815260200190815260200160002060006101000a81548173ffffffffffffffffffffffffffffffffffffffff021916908373ffffffffffffffffffffffffffffffffffffffff160217905550808273ffffffffffffffffffffffffffffffffffffffff168473ffffffffffffffffffffffffffffffffffffffff167fddf252ad1be2c89b69c2b068fc378daa952ba7f163c4a11628f55a4df523b3ef60405160405180910390a4505050565b600081600001549050919050565b6000600760009054906101000a900473ffffffffffffffffffffffffffffffffffffffff16905081600760006101000a81548173ffffffffffffffffffffffffffffffffffffffff021916908373ffffffffffffffffffffffffffffffffffffffff1602179055508173ffffffffffffffffffffffffffffffffffffffff168173ffffffffffffffffffffffffffffffffffffffff167f8be0079c531659141344cd1fd0a4f28419497f9722a3daafe3b4186f6b6457e060405160405180910390a35050565b8173ffffffffffffffffffffffffffffffffffffffff168373ffffffffffffffffffffffffffffffffffffffff1614156115d7576040517f08c379a00000000000000000000000000000000000000000000000000000000081526004016115ce906129a6565b60405180910390fd5b80600560008573ffffffffffffffffffffffffffffffffffffffff1673ffffffffffffffffffffffffffffffffffffffff16815260200190815260200160002060008473ffffffffffffffffffffffffffffffffffffffff1673ffffffffffffffffffffffffffffffffffffffff16815260200190815260200160002060006101000a81548160ff0219169083151502179055508173ffffffffffffffffffffffffffffffffffffffff168373ffffffffffffffffffffffffffffffffffffffff167f17307eab39ab6107e8899845ad3d59bd9653f200f220920489ca2b5937696c31836040516116c891906128e9565b60405180910390a3505050565b6116e0848484611238565b6116ec84848484611bba565b61172b576040517f08c379a000000000000000000000000000000000000000000000000000000000815260040161172290612926565b60405180910390fd5b50505050565b606060405180602001604052806000815250905090565b60606117538261102d565b611792576040517f08c379a000000000000000000000000000000000000000000000000000000000815260040161178990612b46565b60405180910390fd5b600061179c611731565b905060008151116117bc57604051806020016040528060008152506117e7565b806117c684611d51565b6040516020016117d7929190612810565b6040516020818303038152906040525b915050919050565b60606000849050600084846118049190612d27565b67ffffffffffffffff811115611843577f4e487b7100000000000000000000000000000000000000000000000000000000600052604160045260246000fd5b6040519080825280601f01601f1916602001820160405280156118755781602001600182028036833780820191505090505b50905060008590505b84811015611950578281815181106118bf577f4e487b7100000000000000000000000000000000000000000000000000000000600052603260045260246000fd5b602001015160f81c60f81b8287836118d79190612d27565b8151811061190e577f4e487b7100000000000000000000000000000000000000000000000000000000600052603260045260246000fd5b60200101907effffffffffffffffffffffffffffffffffffffffffffffffffffffffffffff1916908160001a905350808061194890612e86565b91505061187e565b5080925050509392505050565b6001816000016000828254019250508190555050565b600073ffffffffffffffffffffffffffffffffffffffff168273ffffffffffffffffffffffffffffffffffffffff1614156119e3576040517f08c379a00000000000000000000000000000000000000000000000000000000081526004016119da90612aa6565b60405180910390fd5b6119ec8161102d565b15611a2c576040517f08c379a0000000000000000000000000000000000000000000000000000000008152600401611a2390612966565b60405180910390fd5b611a3860008383611bb5565b6001600360008473ffffffffffffffffffffffffffffffffffffffff1673ffffffffffffffffffffffffffffffffffffffff1681526020019081526020016000206000828254611a889190612ca0565b92505081905550816002600083815260200190815260200160002060006101000a81548173ffffffffffffffffffffffffffffffffffffffff021916908373ffffffffffffffffffffffffffffffffffffffff160217905550808273ffffffffffffffffffffffffffffffffffffffff16600073ffffffffffffffffffffffffffffffffffffffff167fddf252ad1be2c89b69c2b068fc378daa952ba7f163c4a11628f55a4df523b3ef60405160405180910390a45050565b611b4a8261102d565b611b89576040517f08c379a0000000000000000000000000000000000000000000000000000000008152600401611b8090612a46565b60405180910390fd5b80600660008481526020019081526020016000209080519060200190611bb0929190611f11565b505050565b505050565b6000611bdb8473ffffffffffffffffffffffffffffffffffffffff16611efe565b15611d44578373ffffffffffffffffffffffffffffffffffffffff1663150b7a02611c04611099565b8786866040518563ffffffff1660e01b8152600401611c26949392919061289d565b602060405180830381600087803b158015611c4057600080fd5b505af1925050508015611c7157506040513d601f19601f82011682018060405250810190611c6e9190612364565b60015b611cf4573d8060008114611ca1576040519150601f19603f3d011682016040523d82523d6000602084013e611ca6565b606091505b50600081511415611cec576040517f08c379a0000000000000000000000000000000000000000000000000000000008152600401611ce390612926565b60405180910390fd5b805181602001fd5b63150b7a0260e01b7bffffffffffffffffffffffffffffffffffffffffffffffffffffffff1916817bffffffffffffffffffffffffffffffffffffffffffffffffffffffff191614915050611d49565b600190505b949350505050565b60606000821415611d99576040518060400160405280600181526020017f30000000000000000000000000000000000000000000000000000000000000008152509050611ef9565b600082905060005b60008214611dcb578080611db490612e86565b915050600a82611dc49190612cf6565b9150611da1565b60008167ffffffffffffffff811115611e0d577f4e487b7100000000000000000000000000000000000000000000000000000000600052604160045260246000fd5b6040519080825280601f01601f191660200182016040528015611e3f5781602001600182028036833780820191505090505b5090505b60008514611ef257600182611e589190612d27565b9150600a85611e679190612ecf565b6030611e739190612ca0565b60f81b818381518110611eaf577f4e487b7100000000000000000000000000000000000000000000000000000000600052603260045260246000fd5b60200101907effffffffffffffffffffffffffffffffffffffffffffffffffffffffffffff1916908160001a905350600a85611eeb9190612cf6565b9450611e43565b8093505050505b919050565b600080823b905060008111915050919050565b828054611f1d90612e23565b90600052602060002090601f016020900481019282611f3f5760008555611f86565b82601f10611f5857805160ff1916838001178555611f86565b82800160010185558215611f86579182015b82811115611f85578251825591602001919060010190611f6a565b5b509050611f939190611f97565b5090565b5b80821115611fb0576000816000905550600101611f98565b5090565b6000611fc7611fc284612be6565b612bc1565b905082815260208101848484011115611fdf57600080fd5b611fea848285612de1565b509392505050565b600061200561200084612c17565b612bc1565b90508281526020810184848401111561201d57600080fd5b612028848285612de1565b509392505050565b60008135905061203f8161353b565b92915050565b60008135905061205481613552565b92915050565b60008151905061206981613552565b92915050565b60008135905061207e81613569565b92915050565b60008151905061209381613569565b92915050565b600082601f8301126120aa57600080fd5b81356120ba848260208601611fb4565b91505092915050565b600082601f8301126120d457600080fd5b81356120e4848260208601611ff2565b91505092915050565b6000813590506120fc81613580565b92915050565b60008151905061211181613580565b92915050565b60006020828403121561212957600080fd5b600061213784828501612030565b91505092915050565b6000806040838503121561215357600080fd5b600061216185828601612030565b925050602061217285828601612030565b9150509250929050565b60008060006060848603121561219157600080fd5b600061219f86828701612030565b93505060206121b086828701612030565b92505060406121c1868287016120ed565b9150509250925092565b600080600080608085870312156121e157600080fd5b60006121ef87828801612030565b945050602061220087828801612030565b9350506040612211878288016120ed565b925050606085013567ffffffffffffffff81111561222e57600080fd5b61223a87828801612099565b91505092959194509250565b6000806040838503121561225957600080fd5b600061226785828601612030565b925050602061227885828601612045565b9150509250929050565b6000806040838503121561229557600080fd5b60006122a385828601612030565b925050602083013567ffffffffffffffff8111156122c057600080fd5b6122cc858286016120c3565b9150509250929050565b600080604083850312156122e957600080fd5b60006122f785828601612030565b9250506020612308858286016120ed565b9150509250929050565b60006020828403121561232457600080fd5b60006123328482850161205a565b91505092915050565b60006020828403121561234d57600080fd5b600061235b8482850161206f565b91505092915050565b60006020828403121561237657600080fd5b600061238484828501612084565b91505092915050565b60006020828403121561239f57600080fd5b60006123ad848285016120ed565b91505092915050565b6000602082840312156123c857600080fd5b60006123d684828501612102565b91505092915050565b6123e881612d5b565b82525050565b6123f781612d6d565b82525050565b600061240882612c5d565b6124128185612c73565b9350612422818560208601612df0565b61242b81612fbc565b840191505092915050565b61243f81612dcf565b82525050565b600061245082612c68565b61245a8185612c84565b935061246a818560208601612df0565b61247381612fbc565b840191505092915050565b600061248982612c68565b6124938185612c95565b93506124a3818560208601612df0565b80840191505092915050565b600081546124bc81612e23565b6124c68186612c95565b945060018216600081146124e157600181146124f257612525565b60ff19831686528186019350612525565b6124fb85612c48565b60005b8381101561251d578154818901526001820191506020810190506124fe565b838801955050505b50505092915050565b600061253b603283612c84565b915061254682612fcd565b604082019050919050565b600061255e602683612c84565b91506125698261301c565b604082019050919050565b6000612581601c83612c84565b915061258c8261306b565b602082019050919050565b60006125a4602483612c84565b91506125af82613094565b604082019050919050565b60006125c7601983612c84565b91506125d2826130e3565b602082019050919050565b60006125ea602c83612c84565b91506125f58261310c565b604082019050919050565b600061260d603883612c84565b91506126188261315b565b604082019050919050565b6000612630602a83612c84565b915061263b826131aa565b604082019050919050565b6000612653602983612c84565b915061265e826131f9565b604082019050919050565b6000612676602e83612c84565b915061268182613248565b604082019050919050565b6000612699601a83612c84565b91506126a482613297565b602082019050919050565b60006126bc602183612c84565b91506126c7826132c0565b604082019050919050565b60006126df602083612c84565b91506126ea8261330f565b602082019050919050565b6000612702603183612c84565b915061270d82613338565b604082019050919050565b6000612725602c83612c84565b915061273082613387565b604082019050919050565b6000612748602083612c84565b9150612753826133d6565b602082019050919050565b600061276b602983612c84565b9150612776826133ff565b604082019050919050565b600061278e602f83612c84565b91506127998261344e565b604082019050919050565b60006127b1602183612c84565b91506127bc8261349d565b604082019050919050565b60006127d4603183612c84565b91506127df826134ec565b604082019050919050565b6127f381612dc5565b82525050565b6000612805828461247e565b915081905092915050565b600061281c828561247e565b9150612828828461247e565b91508190509392505050565b600061284082846124af565b915081905092915050565b600060208201905061286060008301846123df565b92915050565b600060608201905061287b60008301866123df565b61288860208301856123df565b6128956040830184612436565b949350505050565b60006080820190506128b260008301876123df565b6128bf60208301866123df565b6128cc60408301856127ea565b81810360608301526128de81846123fd565b905095945050505050565b60006020820190506128fe60008301846123ee565b92915050565b6000602082019050818103600083015261291e8184612445565b905092915050565b6000602082019050818103600083015261293f8161252e565b9050919050565b6000602082019050818103600083015261295f81612551565b9050919050565b6000602082019050818103600083015261297f81612574565b9050919050565b6000602082019050818103600083015261299f81612597565b9050919050565b600060208201905081810360008301526129bf816125ba565b9050919050565b600060208201905081810360008301526129df816125dd565b9050919050565b600060208201905081810360008301526129ff81612600565b9050919050565b60006020820190508181036000830152612a1f81612623565b9050919050565b60006020820190508181036000830152612a3f81612646565b9050919050565b60006020820190508181036000830152612a5f81612669565b9050919050565b60006020820190508181036000830152612a7f8161268c565b9050919050565b60006020820190508181036000830152612a9f816126af565b9050919050565b60006020820190508181036000830152612abf816126d2565b9050919050565b60006020820190508181036000830152612adf816126f5565b9050919050565b60006020820190508181036000830152612aff81612718565b9050919050565b60006020820190508181036000830152612b1f8161273b565b9050919050565b60006020820190508181036000830152612b3f8161275e565b9050919050565b60006020820190508181036000830152612b5f81612781565b9050919050565b60006020820190508181036000830152612b7f816127a4565b9050919050565b60006020820190508181036000830152612b9f816127c7565b9050919050565b6000602082019050612bbb60008301846127ea565b92915050565b6000612bcb612bdc565b9050612bd78282612e55565b919050565b6000604051905090565b600067ffffffffffffffff821115612c0157612c00612f8d565b5b612c0a82612fbc565b9050602081019050919050565b600067ffffffffffffffff821115612c3257612c31612f8d565b5b612c3b82612fbc565b9050602081019050919050565b60008190508160005260206000209050919050565b600081519050919050565b600081519050919050565b600082825260208201905092915050565b600082825260208201905092915050565b600081905092915050565b6000612cab82612dc5565b9150612cb683612dc5565b9250827fffffffffffffffffffffffffffffffffffffffffffffffffffffffffffffffff03821115612ceb57612cea612f00565b5b828201905092915050565b6000612d0182612dc5565b9150612d0c83612dc5565b925082612d1c57612d1b612f2f565b5b828204905092915050565b6000612d3282612dc5565b9150612d3d83612dc5565b925082821015612d5057612d4f612f00565b5b828203905092915050565b6000612d6682612da5565b9050919050565b60008115159050919050565b60007fffffffff0000000000000000000000000000000000000000000000000000000082169050919050565b600073ffffffffffffffffffffffffffffffffffffffff82169050919050565b6000819050919050565b6000612dda82612dc5565b9050919050565b82818337600083830152505050565b60005b83811015612e0e578082015181840152602081019050612df3565b83811115612e1d576000848401525b50505050565b60006002820490506001821680612e3b57607f821691505b60208210811415612e4f57612e4e612f5e565b5b50919050565b612e5e82612fbc565b810181811067ffffffffffffffff82111715612e7d57612e7c612f8d565b5b80604052505050565b6000612e9182612dc5565b91507fffffffffffffffffffffffffffffffffffffffffffffffffffffffffffffffff821415612ec457612ec3612f00565b5b600182019050919050565b6000612eda82612dc5565b9150612ee583612dc5565b925082612ef557612ef4612f2f565b5b828206905092915050565b7f4e487b7100000000000000000000000000000000000000000000000000000000600052601160045260246000fd5b7f4e487b7100000000000000000000000000000000000000000000000000000000600052601260045260246000fd5b7f4e487b7100000000000000000000000000000000000000000000000000000000600052602260045260246000fd5b7f4e487b7100000000000000000000000000000000000000000000000000000000600052604160045260246000fd5b6000601f19601f8301169050919050565b7f4552433732313a207472616e7366657220746f206e6f6e20455243373231526560008201527f63656976657220696d706c656d656e7465720000000000000000000000000000602082015250565b7f4f776e61626c653a206e6577206f776e657220697320746865207a65726f206160008201527f6464726573730000000000000000000000000000000000000000000000000000602082015250565b7f4552433732313a20746f6b656e20616c7265616479206d696e74656400000000600082015250565b7f4552433732313a207472616e7366657220746f20746865207a65726f2061646460008201527f7265737300000000000000000000000000000000000000000000000000000000602082015250565b7f4552433732313a20617070726f766520746f2063616c6c657200000000000000600082015250565b7f4552433732313a206f70657261746f7220717565727920666f72206e6f6e657860008201527f697374656e7420746f6b656e0000000000000000000000000000000000000000602082015250565b7f4552433732313a20617070726f76652063616c6c6572206973206e6f74206f7760008201527f6e6572206e6f7220617070726f76656420666f7220616c6c0000000000000000602082015250565b7f4552433732313a2062616c616e636520717565727920666f7220746865207a6560008201527f726f206164647265737300000000000000000000000000000000000000000000602082015250565b7f4552433732313a206f776e657220717565727920666f72206e6f6e657869737460008201527f656e7420746f6b656e0000000000000000000000000000000000000000000000602082015250565b7f45524337323155524953746f726167653a2055524920736574206f66206e6f6e60008201527f6578697374656e7420746f6b656e000000000000000000000000000000000000602082015250565b7f596f75206d7573742068617665204d444c4120746f206d696e74000000000000600082015250565b7f596f75206d757374206d696e7420616e206f6e2d636861696e204d616e64616c60008201527f6100000000000000000000000000000000000000000000000000000000000000602082015250565b7f4552433732313a206d696e7420746f20746865207a65726f2061646472657373600082015250565b7f45524337323155524953746f726167653a2055524920717565727920666f722060008201527f6e6f6e6578697374656e7420746f6b656e000000000000000000000000000000602082015250565b7f4552433732313a20617070726f76656420717565727920666f72206e6f6e657860008201527f697374656e7420746f6b656e0000000000000000000000000000000000000000602082015250565b7f4f776e61626c653a2063616c6c6572206973206e6f7420746865206f776e6572600082015250565b7f4552433732313a207472616e73666572206f6620746f6b656e2074686174206960008201527f73206e6f74206f776e0000000000000000000000000000000000000000000000602082015250565b7f4552433732314d657461646174613a2055524920717565727920666f72206e6f60008201527f6e6578697374656e7420746f6b656e0000000000000000000000000000000000602082015250565b7f4552433732313a20617070726f76616c20746f2063757272656e74206f776e6560008201527f7200000000000000000000000000000000000000000000000000000000000000602082015250565b7f4552433732313a207472616e736665722063616c6c6572206973206e6f74206f60008201527f776e6572206e6f7220617070726f766564000000000000000000000000000000602082015250565b61354481612d5b565b811461354f57600080fd5b50565b61355b81612d6d565b811461356657600080fd5b50565b61357281612d79565b811461357d57600080fd5b50565b61358981612dc5565b811461359457600080fd5b5056fea264697066735822122029a18b040e76dd0bc86e43f258c924c8506c33c9bd468cd18baaadbe46d0b93f64736f6c63430008030033",
  "linkReferences": {},
  "deployedLinkReferences": {}
}