{
  "_format": "hh-sol-artifact-1",
  "contractName": "OnChainNFT",
  "sourceName": "contracts/OnChainNFT.sol",
  "abi": [
    {
      "anonymous": false,
      "inputs": [
        {
          "indexed": true,
          "internalType": "address",
          "name": "owner",
          "type": "address"
        },
        {
          "indexed": true,
          "internalType": "address",
          "name": "approved",
          "type": "address"
        },
        {
          "indexed": true,
          "internalType": "uint256",
          "name": "tokenId",
          "type": "uint256"
        }
      ],
      "name": "Approval",
      "type": "event"
    },
    {
      "anonymous": false,
      "inputs": [
        {
          "indexed": true,
          "internalType": "address",
          "name": "owner",
          "type": "address"
        },
        {
          "indexed": true,
          "internalType": "address",
          "name": "operator",
          "type": "address"
        },
        {
          "indexed": false,
          "internalType": "bool",
          "name": "approved",
          "type": "bool"
        }
      ],
      "name": "ApprovalForAll",
      "type": "event"
    },
    {
      "anonymous": false,
      "inputs": [
        {
          "indexed": true,
          "internalType": "address",
          "name": "previousOwner",
          "type": "address"
        },
        {
          "indexed": true,
          "internalType": "address",
          "name": "newOwner",
          "type": "address"
        }
      ],
      "name": "OwnershipTransferred",
      "type": "event"
    },
    {
      "anonymous": false,
      "inputs": [
        {
          "indexed": true,
          "internalType": "address",
          "name": "from",
          "type": "address"
        },
        {
          "indexed": true,
          "internalType": "address",
          "name": "to",
          "type": "address"
        },
        {
          "indexed": true,
          "internalType": "uint256",
          "name": "tokenId",
          "type": "uint256"
        }
      ],
      "name": "Transfer",
      "type": "event"
    },
    {
      "inputs": [
        {
          "internalType": "address",
          "name": "to",
          "type": "address"
        },
        {
          "internalType": "uint256",
          "name": "tokenId",
          "type": "uint256"
        }
      ],
      "name": "approve",
      "outputs": [],
      "stateMutability": "nonpayable",
      "type": "function"
    },
    {
      "inputs": [
        {
          "internalType": "address",
          "name": "owner",
          "type": "address"
        }
      ],
      "name": "balanceOf",
      "outputs": [
        {
          "internalType": "uint256",
          "name": "",
          "type": "uint256"
        }
      ],
      "stateMutability": "view",
      "type": "function"
    },
    {
      "inputs": [
        {
          "internalType": "uint256",
          "name": "tokenId",
          "type": "uint256"
        }
      ],
      "name": "getApproved",
      "outputs": [
        {
          "internalType": "address",
          "name": "",
          "type": "address"
        }
      ],
      "stateMutability": "view",
      "type": "function"
    },
    {
      "inputs": [],
      "name": "getLatestTokenId",
      "outputs": [
        {
          "internalType": "uint256",
          "name": "",
          "type": "uint256"
        }
      ],
      "stateMutability": "view",
      "type": "function"
    },
    {
      "inputs": [],
      "name": "initialize",
      "outputs": [],
      "stateMutability": "nonpayable",
      "type": "function"
    },
    {
      "inputs": [
        {
          "internalType": "address",
          "name": "owner",
          "type": "address"
        },
        {
          "internalType": "address",
          "name": "operator",
          "type": "address"
        }
      ],
      "name": "isApprovedForAll",
      "outputs": [
        {
          "internalType": "bool",
          "name": "",
          "type": "bool"
        }
      ],
      "stateMutability": "view",
      "type": "function"
    },
    {
      "inputs": [
        {
          "internalType": "address",
          "name": "recipient",
          "type": "address"
        },
        {
          "internalType": "string",
          "name": "tokenURI",
          "type": "string"
        }
      ],
      "name": "mintNFT",
      "outputs": [
        {
          "internalType": "uint256",
          "name": "",
          "type": "uint256"
        }
      ],
      "stateMutability": "nonpayable",
      "type": "function"
    },
    {
      "inputs": [],
      "name": "name",
      "outputs": [
        {
          "internalType": "string",
          "name": "",
          "type": "string"
        }
      ],
      "stateMutability": "view",
      "type": "function"
    },
    {
      "inputs": [],
      "name": "owner",
      "outputs": [
        {
          "internalType": "address",
          "name": "",
          "type": "address"
        }
      ],
      "stateMutability": "view",
      "type": "function"
    },
    {
      "inputs": [
        {
          "internalType": "uint256",
          "name": "tokenId",
          "type": "uint256"
        }
      ],
      "name": "ownerOf",
      "outputs": [
        {
          "internalType": "address",
          "name": "",
          "type": "address"
        }
      ],
      "stateMutability": "view",
      "type": "function"
    },
    {
      "inputs": [],
      "name": "renounceOwnership",
      "outputs": [],
      "stateMutability": "nonpayable",
      "type": "function"
    },
    {
      "inputs": [
        {
          "internalType": "address",
          "name": "from",
          "type": "address"
        },
        {
          "internalType": "address",
          "name": "to",
          "type": "address"
        },
        {
          "internalType": "uint256",
          "name": "tokenId",
          "type": "uint256"
        }
      ],
      "name": "safeTransferFrom",
      "outputs": [],
      "stateMutability": "nonpayable",
      "type": "function"
    },
    {
      "inputs": [
        {
          "internalType": "address",
          "name": "from",
          "type": "address"
        },
        {
          "internalType": "address",
          "name": "to",
          "type": "address"
        },
        {
          "internalType": "uint256",
          "name": "tokenId",
          "type": "uint256"
        },
        {
          "internalType": "bytes",
          "name": "_data",
          "type": "bytes"
        }
      ],
      "name": "safeTransferFrom",
      "outputs": [],
      "stateMutability": "nonpayable",
      "type": "function"
    },
    {
      "inputs": [
        {
          "internalType": "address",
          "name": "operator",
          "type": "address"
        },
        {
          "internalType": "bool",
          "name": "approved",
          "type": "bool"
        }
      ],
      "name": "setApprovalForAll",
      "outputs": [],
      "stateMutability": "nonpayable",
      "type": "function"
    },
    {
      "inputs": [
        {
          "internalType": "bytes4",
          "name": "interfaceId",
          "type": "bytes4"
        }
      ],
      "name": "supportsInterface",
      "outputs": [
        {
          "internalType": "bool",
          "name": "",
          "type": "bool"
        }
      ],
      "stateMutability": "view",
      "type": "function"
    },
    {
      "inputs": [],
      "name": "symbol",
      "outputs": [
        {
          "internalType": "string",
          "name": "",
          "type": "string"
        }
      ],
      "stateMutability": "view",
      "type": "function"
    },
    {
      "inputs": [
        {
          "internalType": "uint256",
          "name": "tokenId",
          "type": "uint256"
        }
      ],
      "name": "tokenURI",
      "outputs": [
        {
          "internalType": "string",
          "name": "",
          "type": "string"
        }
      ],
      "stateMutability": "view",
      "type": "function"
    },
    {
      "inputs": [
        {
          "internalType": "address",
          "name": "from",
          "type": "address"
        },
        {
          "internalType": "address",
          "name": "to",
          "type": "address"
        },
        {
          "internalType": "uint256",
          "name": "tokenId",
          "type": "uint256"
        }
      ],
      "name": "transferFrom",
      "outputs": [],
      "stateMutability": "nonpayable",
      "type": "function"
    },
    {
      "inputs": [
        {
          "internalType": "address",
          "name": "newOwner",
          "type": "address"
        }
      ],
      "name": "transferOwnership",
      "outputs": [],
      "stateMutability": "nonpayable",
      "type": "function"
    }
  ],
  "bytecode": "0x608060405234801561001057600080fd5b506134f3806100206000396000f3fe608060405234801561001057600080fd5b50600436106101215760003560e01c8063715018a6116100ad578063b88d4fde11610071578063b88d4fde146102e2578063c87b56dd146102fe578063e985e9c51461032e578063eacabe141461035e578063f2fde38b1461038e57610121565b8063715018a6146102765780638129fc1c146102805780638da5cb5b1461028a57806395d89b41146102a8578063a22cb465146102c657610121565b806323b872dd116100f457806323b872dd146101c057806325d112a9146101dc57806342842e0e146101fa5780636352211e1461021657806370a082311461024657610121565b806301ffc9a71461012657806306fdde0314610156578063081812fc14610174578063095ea7b3146101a4575b600080fd5b610140600480360381019061013b919061237e565b6103aa565b60405161014d9190612810565b60405180910390f35b61015e61048c565b60405161016b919061282b565b60405180910390f35b61018e600480360381019061018991906123d0565b61051e565b60405161019b91906127a9565b60405180910390f35b6101be60048036038101906101b99190612342565b6105a3565b005b6101da60048036038101906101d591906121e8565b6106bb565b005b6101e461071b565b6040516101f19190612acd565b60405180910390f35b610214600480360381019061020f91906121e8565b61072c565b005b610230600480360381019061022b91906123d0565b61074c565b60405161023d91906127a9565b60405180910390f35b610260600480360381019061025b9190612183565b6107fe565b60405161026d9190612acd565b60405180910390f35b61027e6108b6565b005b61028861093e565b005b610292610a9e565b60405161029f91906127a9565b60405180910390f35b6102b0610ac8565b6040516102bd919061282b565b60405180910390f35b6102e060048036038101906102db91906122b2565b610b5a565b005b6102fc60048036038101906102f79190612237565b610b70565b005b610318600480360381019061031391906123d0565b610bd2565b604051610325919061282b565b60405180910390f35b610348600480360381019061034391906121ac565b610d24565b6040516103559190612810565b60405180910390f35b610378600480360381019061037391906122ee565b610db8565b6040516103859190612acd565b60405180910390f35b6103a860048036038101906103a39190612183565b610e6c565b005b60007f80ac58cd000000000000000000000000000000000000000000000000000000007bffffffffffffffffffffffffffffffffffffffffffffffffffffffff1916827bffffffffffffffffffffffffffffffffffffffffffffffffffffffff1916148061047557507f5b5e139f000000000000000000000000000000000000000000000000000000007bffffffffffffffffffffffffffffffffffffffffffffffffffffffff1916827bffffffffffffffffffffffffffffffffffffffffffffffffffffffff1916145b80610485575061048482610f64565b5b9050919050565b60606065805461049b90612d23565b80601f01602080910402602001604051908101604052809291908181526020018280546104c790612d23565b80156105145780601f106104e957610100808354040283529160200191610514565b820191906000526020600020905b8154815290600101906020018083116104f757829003601f168201915b5050505050905090565b600061052982610fce565b610568576040517f08c379a000000000000000000000000000000000000000000000000000000000815260040161055f906129ed565b60405180910390fd5b6069600083815260200190815260200160002060009054906101000a900473ffffffffffffffffffffffffffffffffffffffff169050919050565b60006105ae8261074c565b90508073ffffffffffffffffffffffffffffffffffffffff168373ffffffffffffffffffffffffffffffffffffffff16141561061f576040517f08c379a000000000000000000000000000000000000000000000000000000000815260040161061690612a6d565b60405180910390fd5b8073ffffffffffffffffffffffffffffffffffffffff1661063e61103a565b73ffffffffffffffffffffffffffffffffffffffff16148061066d575061066c8161066761103a565b610d24565b5b6106ac576040517f08c379a00000000000000000000000000000000000000000000000000000000081526004016106a39061290d565b60405180910390fd5b6106b68383611042565b505050565b6106cc6106c661103a565b826110fb565b61070b576040517f08c379a000000000000000000000000000000000000000000000000000000000815260040161070290612a8d565b60405180910390fd5b6107168383836111d9565b505050565b600061072760fb611435565b905090565b61074783838360405180602001604052806000815250610b70565b505050565b6000806067600084815260200190815260200160002060009054906101000a900473ffffffffffffffffffffffffffffffffffffffff169050600073ffffffffffffffffffffffffffffffffffffffff168173ffffffffffffffffffffffffffffffffffffffff1614156107f5576040517f08c379a00000000000000000000000000000000000000000000000000000000081526004016107ec9061294d565b60405180910390fd5b80915050919050565b60008073ffffffffffffffffffffffffffffffffffffffff168273ffffffffffffffffffffffffffffffffffffffff16141561086f576040517f08c379a00000000000000000000000000000000000000000000000000000000081526004016108669061292d565b60405180910390fd5b606860008373ffffffffffffffffffffffffffffffffffffffff1673ffffffffffffffffffffffffffffffffffffffff168152602001908152602001600020549050919050565b6108be61103a565b73ffffffffffffffffffffffffffffffffffffffff166108dc610a9e565b73ffffffffffffffffffffffffffffffffffffffff1614610932576040517f08c379a000000000000000000000000000000000000000000000000000000000815260040161092990612a0d565b60405180910390fd5b61093c6000611443565b565b600060019054906101000a900460ff166109665760008054906101000a900460ff161561096f565b61096e611509565b5b6109ae576040517f08c379a00000000000000000000000000000000000000000000000000000000081526004016109a59061298d565b60405180910390fd5b60008060019054906101000a900460ff1615905080156109fe576001600060016101000a81548160ff02191690831515021790555060016000806101000a81548160ff0219169083151502179055505b610a726040518060400160405280600a81526020017f4f6e436861696e4e4654000000000000000000000000000000000000000000008152506040518060400160405280600381526020017f4e4654000000000000000000000000000000000000000000000000000000000081525061151a565b610a7a611587565b8015610a9b5760008060016101000a81548160ff0219169083151502179055505b50565b600060c960009054906101000a900473ffffffffffffffffffffffffffffffffffffffff16905090565b606060668054610ad790612d23565b80601f0160208091040260200160405190810160405280929190818152602001828054610b0390612d23565b8015610b505780601f10610b2557610100808354040283529160200191610b50565b820191906000526020600020905b815481529060010190602001808311610b3357829003601f168201915b5050505050905090565b610b6c610b6561103a565b83836115e8565b5050565b610b81610b7b61103a565b836110fb565b610bc0576040517f08c379a0000000000000000000000000000000000000000000000000000000008152600401610bb790612a8d565b60405180910390fd5b610bcc84848484611755565b50505050565b6060610bdd82610fce565b610c1c576040517f08c379a0000000000000000000000000000000000000000000000000000000008152600401610c13906129cd565b60405180910390fd5b6000609760008481526020019081526020016000208054610c3c90612d23565b80601f0160208091040260200160405190810160405280929190818152602001828054610c6890612d23565b8015610cb55780601f10610c8a57610100808354040283529160200191610cb5565b820191906000526020600020905b815481529060010190602001808311610c9857829003601f168201915b505050505090506000610cc66117b1565b9050600081511415610cdc578192505050610d1f565b600082511115610d11578082604051602001610cf9929190612785565b60405160208183030381529060405292505050610d1f565b610d1a846117c8565b925050505b919050565b6000606a60008473ffffffffffffffffffffffffffffffffffffffff1673ffffffffffffffffffffffffffffffffffffffff16815260200190815260200160002060008373ffffffffffffffffffffffffffffffffffffffff1673ffffffffffffffffffffffffffffffffffffffff16815260200190815260200160002060009054906101000a900460ff16905092915050565b6000610dc261103a565b73ffffffffffffffffffffffffffffffffffffffff16610de0610a9e565b73ffffffffffffffffffffffffffffffffffffffff1614610e36576040517f08c379a0000000000000000000000000000000000000000000000000000000008152600401610e2d90612a0d565b60405180910390fd5b610e4060fb61186f565b6000610e4c60fb611435565b9050610e588482611885565b610e628184611a53565b8091505092915050565b610e7461103a565b73ffffffffffffffffffffffffffffffffffffffff16610e92610a9e565b73ffffffffffffffffffffffffffffffffffffffff1614610ee8576040517f08c379a0000000000000000000000000000000000000000000000000000000008152600401610edf90612a0d565b60405180910390fd5b600073ffffffffffffffffffffffffffffffffffffffff168173ffffffffffffffffffffffffffffffffffffffff161415610f58576040517f08c379a0000000000000000000000000000000000000000000000000000000008152600401610f4f9061286d565b60405180910390fd5b610f6181611443565b50565b60007f01ffc9a7000000000000000000000000000000000000000000000000000000007bffffffffffffffffffffffffffffffffffffffffffffffffffffffff1916827bffffffffffffffffffffffffffffffffffffffffffffffffffffffff1916149050919050565b60008073ffffffffffffffffffffffffffffffffffffffff166067600084815260200190815260200160002060009054906101000a900473ffffffffffffffffffffffffffffffffffffffff1673ffffffffffffffffffffffffffffffffffffffff1614159050919050565b600033905090565b816069600083815260200190815260200160002060006101000a81548173ffffffffffffffffffffffffffffffffffffffff021916908373ffffffffffffffffffffffffffffffffffffffff160217905550808273ffffffffffffffffffffffffffffffffffffffff166110b58361074c565b73ffffffffffffffffffffffffffffffffffffffff167f8c5be1e5ebec7d5bd14f71427d1e84f3dd0314c0f7b2291e5b200ac8c7c3b92560405160405180910390a45050565b600061110682610fce565b611145576040517f08c379a000000000000000000000000000000000000000000000000000000000815260040161113c906128ed565b60405180910390fd5b60006111508361074c565b90508073ffffffffffffffffffffffffffffffffffffffff168473ffffffffffffffffffffffffffffffffffffffff1614806111bf57508373ffffffffffffffffffffffffffffffffffffffff166111a78461051e565b73ffffffffffffffffffffffffffffffffffffffff16145b806111d057506111cf8185610d24565b5b91505092915050565b8273ffffffffffffffffffffffffffffffffffffffff166111f98261074c565b73ffffffffffffffffffffffffffffffffffffffff161461124f576040517f08c379a000000000000000000000000000000000000000000000000000000000815260040161124690612a2d565b60405180910390fd5b600073ffffffffffffffffffffffffffffffffffffffff168273ffffffffffffffffffffffffffffffffffffffff1614156112bf576040517f08c379a00000000000000000000000000000000000000000000000000000000081526004016112b6906128ad565b60405180910390fd5b6112ca838383611ac7565b6112d5600082611042565b6001606860008573ffffffffffffffffffffffffffffffffffffffff1673ffffffffffffffffffffffffffffffffffffffff16815260200190815260200160002060008282546113259190612c39565b925050819055506001606860008473ffffffffffffffffffffffffffffffffffffffff1673ffffffffffffffffffffffffffffffffffffffff168152602001908152602001600020600082825461137c9190612bb2565b92505081905550816067600083815260200190815260200160002060006101000a81548173ffffffffffffffffffffffffffffffffffffffff021916908373ffffffffffffffffffffffffffffffffffffffff160217905550808273ffffffffffffffffffffffffffffffffffffffff168473ffffffffffffffffffffffffffffffffffffffff167fddf252ad1be2c89b69c2b068fc378daa952ba7f163c4a11628f55a4df523b3ef60405160405180910390a4505050565b600081600001549050919050565b600060c960009054906101000a900473ffffffffffffffffffffffffffffffffffffffff1690508160c960006101000a81548173ffffffffffffffffffffffffffffffffffffffff021916908373ffffffffffffffffffffffffffffffffffffffff1602179055508173ffffffffffffffffffffffffffffffffffffffff168173ffffffffffffffffffffffffffffffffffffffff167f8be0079c531659141344cd1fd0a4f28419497f9722a3daafe3b4186f6b6457e060405160405180910390a35050565b600061151430611acc565b15905090565b600060019054906101000a900460ff16611569576040517f08c379a000000000000000000000000000000000000000000000000000000000815260040161156090612aad565b60405180910390fd5b611571611adf565b611579611b30565b6115838282611b81565b5050565b600060019054906101000a900460ff166115d6576040517f08c379a00000000000000000000000000000000000000000000000000000000081526004016115cd90612aad565b60405180910390fd5b6115de611adf565b6115e6611c02565b565b8173ffffffffffffffffffffffffffffffffffffffff168373ffffffffffffffffffffffffffffffffffffffff161415611657576040517f08c379a000000000000000000000000000000000000000000000000000000000815260040161164e906128cd565b60405180910390fd5b80606a60008573ffffffffffffffffffffffffffffffffffffffff1673ffffffffffffffffffffffffffffffffffffffff16815260200190815260200160002060008473ffffffffffffffffffffffffffffffffffffffff1673ffffffffffffffffffffffffffffffffffffffff16815260200190815260200160002060006101000a81548160ff0219169083151502179055508173ffffffffffffffffffffffffffffffffffffffff168373ffffffffffffffffffffffffffffffffffffffff167f17307eab39ab6107e8899845ad3d59bd9653f200f220920489ca2b5937696c31836040516117489190612810565b60405180910390a3505050565b6117608484846111d9565b61176c84848484611c63565b6117ab576040517f08c379a00000000000000000000000000000000000000000000000000000000081526004016117a29061284d565b60405180910390fd5b50505050565b606060405180602001604052806000815250905090565b60606117d382610fce565b611812576040517f08c379a000000000000000000000000000000000000000000000000000000000815260040161180990612a4d565b60405180910390fd5b600061181c6117b1565b9050600081511161183c5760405180602001604052806000815250611867565b8061184684611dfa565b604051602001611857929190612785565b6040516020818303038152906040525b915050919050565b6001816000016000828254019250508190555050565b600073ffffffffffffffffffffffffffffffffffffffff168273ffffffffffffffffffffffffffffffffffffffff1614156118f5576040517f08c379a00000000000000000000000000000000000000000000000000000000081526004016118ec906129ad565b60405180910390fd5b6118fe81610fce565b1561193e576040517f08c379a00000000000000000000000000000000000000000000000000000000081526004016119359061288d565b60405180910390fd5b61194a60008383611ac7565b6001606860008473ffffffffffffffffffffffffffffffffffffffff1673ffffffffffffffffffffffffffffffffffffffff168152602001908152602001600020600082825461199a9190612bb2565b92505081905550816067600083815260200190815260200160002060006101000a81548173ffffffffffffffffffffffffffffffffffffffff021916908373ffffffffffffffffffffffffffffffffffffffff160217905550808273ffffffffffffffffffffffffffffffffffffffff16600073ffffffffffffffffffffffffffffffffffffffff167fddf252ad1be2c89b69c2b068fc378daa952ba7f163c4a11628f55a4df523b3ef60405160405180910390a45050565b611a5c82610fce565b611a9b576040517f08c379a0000000000000000000000000000000000000000000000000000000008152600401611a929061296d565b60405180910390fd5b80609760008481526020019081526020016000209080519060200190611ac2929190611fa7565b505050565b505050565b600080823b905060008111915050919050565b600060019054906101000a900460ff16611b2e576040517f08c379a0000000000000000000000000000000000000000000000000000000008152600401611b2590612aad565b60405180910390fd5b565b600060019054906101000a900460ff16611b7f576040517f08c379a0000000000000000000000000000000000000000000000000000000008152600401611b7690612aad565b60405180910390fd5b565b600060019054906101000a900460ff16611bd0576040517f08c379a0000000000000000000000000000000000000000000000000000000008152600401611bc790612aad565b60405180910390fd5b8160659080519060200190611be6929190611fa7565b508060669080519060200190611bfd929190611fa7565b505050565b600060019054906101000a900460ff16611c51576040517f08c379a0000000000000000000000000000000000000000000000000000000008152600401611c4890612aad565b60405180910390fd5b611c61611c5c61103a565b611443565b565b6000611c848473ffffffffffffffffffffffffffffffffffffffff16611acc565b15611ded578373ffffffffffffffffffffffffffffffffffffffff1663150b7a02611cad61103a565b8786866040518563ffffffff1660e01b8152600401611ccf94939291906127c4565b602060405180830381600087803b158015611ce957600080fd5b505af1925050508015611d1a57506040513d601f19601f82011682018060405250810190611d1791906123a7565b60015b611d9d573d8060008114611d4a576040519150601f19603f3d011682016040523d82523d6000602084013e611d4f565b606091505b50600081511415611d95576040517f08c379a0000000000000000000000000000000000000000000000000000000008152600401611d8c9061284d565b60405180910390fd5b805181602001fd5b63150b7a0260e01b7bffffffffffffffffffffffffffffffffffffffffffffffffffffffff1916817bffffffffffffffffffffffffffffffffffffffffffffffffffffffff191614915050611df2565b600190505b949350505050565b60606000821415611e42576040518060400160405280600181526020017f30000000000000000000000000000000000000000000000000000000000000008152509050611fa2565b600082905060005b60008214611e74578080611e5d90612d86565b915050600a82611e6d9190612c08565b9150611e4a565b60008167ffffffffffffffff811115611eb6577f4e487b7100000000000000000000000000000000000000000000000000000000600052604160045260246000fd5b6040519080825280601f01601f191660200182016040528015611ee85781602001600182028036833780820191505090505b5090505b60008514611f9b57600182611f019190612c39565b9150600a85611f109190612dcf565b6030611f1c9190612bb2565b60f81b818381518110611f58577f4e487b7100000000000000000000000000000000000000000000000000000000600052603260045260246000fd5b60200101907effffffffffffffffffffffffffffffffffffffffffffffffffffffffffffff1916908160001a905350600a85611f949190612c08565b9450611eec565b8093505050505b919050565b828054611fb390612d23565b90600052602060002090601f016020900481019282611fd5576000855561201c565b82601f10611fee57805160ff191683800117855561201c565b8280016001018555821561201c579182015b8281111561201b578251825591602001919060010190612000565b5b509050612029919061202d565b5090565b5b8082111561204657600081600090555060010161202e565b5090565b600061205d61205884612b0d565b612ae8565b90508281526020810184848401111561207557600080fd5b612080848285612ce1565b509392505050565b600061209b61209684612b3e565b612ae8565b9050828152602081018484840111156120b357600080fd5b6120be848285612ce1565b509392505050565b6000813590506120d581613461565b92915050565b6000813590506120ea81613478565b92915050565b6000813590506120ff8161348f565b92915050565b6000815190506121148161348f565b92915050565b600082601f83011261212b57600080fd5b813561213b84826020860161204a565b91505092915050565b600082601f83011261215557600080fd5b8135612165848260208601612088565b91505092915050565b60008135905061217d816134a6565b92915050565b60006020828403121561219557600080fd5b60006121a3848285016120c6565b91505092915050565b600080604083850312156121bf57600080fd5b60006121cd858286016120c6565b92505060206121de858286016120c6565b9150509250929050565b6000806000606084860312156121fd57600080fd5b600061220b868287016120c6565b935050602061221c868287016120c6565b925050604061222d8682870161216e565b9150509250925092565b6000806000806080858703121561224d57600080fd5b600061225b878288016120c6565b945050602061226c878288016120c6565b935050604061227d8782880161216e565b925050606085013567ffffffffffffffff81111561229a57600080fd5b6122a68782880161211a565b91505092959194509250565b600080604083850312156122c557600080fd5b60006122d3858286016120c6565b92505060206122e4858286016120db565b9150509250929050565b6000806040838503121561230157600080fd5b600061230f858286016120c6565b925050602083013567ffffffffffffffff81111561232c57600080fd5b61233885828601612144565b9150509250929050565b6000806040838503121561235557600080fd5b6000612363858286016120c6565b92505060206123748582860161216e565b9150509250929050565b60006020828403121561239057600080fd5b600061239e848285016120f0565b91505092915050565b6000602082840312156123b957600080fd5b60006123c784828501612105565b91505092915050565b6000602082840312156123e257600080fd5b60006123f08482850161216e565b91505092915050565b61240281612c6d565b82525050565b61241181612c7f565b82525050565b600061242282612b6f565b61242c8185612b85565b935061243c818560208601612cf0565b61244581612ebc565b840191505092915050565b600061245b82612b7a565b6124658185612b96565b9350612475818560208601612cf0565b61247e81612ebc565b840191505092915050565b600061249482612b7a565b61249e8185612ba7565b93506124ae818560208601612cf0565b80840191505092915050565b60006124c7603283612b96565b91506124d282612ecd565b604082019050919050565b60006124ea602683612b96565b91506124f582612f1c565b604082019050919050565b600061250d601c83612b96565b915061251882612f6b565b602082019050919050565b6000612530602483612b96565b915061253b82612f94565b604082019050919050565b6000612553601983612b96565b915061255e82612fe3565b602082019050919050565b6000612576602c83612b96565b91506125818261300c565b604082019050919050565b6000612599603883612b96565b91506125a48261305b565b604082019050919050565b60006125bc602a83612b96565b91506125c7826130aa565b604082019050919050565b60006125df602983612b96565b91506125ea826130f9565b604082019050919050565b6000612602602e83612b96565b915061260d82613148565b604082019050919050565b6000612625602e83612b96565b915061263082613197565b604082019050919050565b6000612648602083612b96565b9150612653826131e6565b602082019050919050565b600061266b603183612b96565b91506126768261320f565b604082019050919050565b600061268e602c83612b96565b91506126998261325e565b604082019050919050565b60006126b1602083612b96565b91506126bc826132ad565b602082019050919050565b60006126d4602983612b96565b91506126df826132d6565b604082019050919050565b60006126f7602f83612b96565b915061270282613325565b604082019050919050565b600061271a602183612b96565b915061272582613374565b604082019050919050565b600061273d603183612b96565b9150612748826133c3565b604082019050919050565b6000612760602b83612b96565b915061276b82613412565b604082019050919050565b61277f81612cd7565b82525050565b60006127918285612489565b915061279d8284612489565b91508190509392505050565b60006020820190506127be60008301846123f9565b92915050565b60006080820190506127d960008301876123f9565b6127e660208301866123f9565b6127f36040830185612776565b81810360608301526128058184612417565b905095945050505050565b60006020820190506128256000830184612408565b92915050565b600060208201905081810360008301526128458184612450565b905092915050565b60006020820190508181036000830152612866816124ba565b9050919050565b60006020820190508181036000830152612886816124dd565b9050919050565b600060208201905081810360008301526128a681612500565b9050919050565b600060208201905081810360008301526128c681612523565b9050919050565b600060208201905081810360008301526128e681612546565b9050919050565b6000602082019050818103600083015261290681612569565b9050919050565b600060208201905081810360008301526129268161258c565b9050919050565b60006020820190508181036000830152612946816125af565b9050919050565b60006020820190508181036000830152612966816125d2565b9050919050565b60006020820190508181036000830152612986816125f5565b9050919050565b600060208201905081810360008301526129a681612618565b9050919050565b600060208201905081810360008301526129c68161263b565b9050919050565b600060208201905081810360008301526129e68161265e565b9050919050565b60006020820190508181036000830152612a0681612681565b9050919050565b60006020820190508181036000830152612a26816126a4565b9050919050565b60006020820190508181036000830152612a46816126c7565b9050919050565b60006020820190508181036000830152612a66816126ea565b9050919050565b60006020820190508181036000830152612a868161270d565b9050919050565b60006020820190508181036000830152612aa681612730565b9050919050565b60006020820190508181036000830152612ac681612753565b9050919050565b6000602082019050612ae26000830184612776565b92915050565b6000612af2612b03565b9050612afe8282612d55565b919050565b6000604051905090565b600067ffffffffffffffff821115612b2857612b27612e8d565b5b612b3182612ebc565b9050602081019050919050565b600067ffffffffffffffff821115612b5957612b58612e8d565b5b612b6282612ebc565b9050602081019050919050565b600081519050919050565b600081519050919050565b600082825260208201905092915050565b600082825260208201905092915050565b600081905092915050565b6000612bbd82612cd7565b9150612bc883612cd7565b9250827fffffffffffffffffffffffffffffffffffffffffffffffffffffffffffffffff03821115612bfd57612bfc612e00565b5b828201905092915050565b6000612c1382612cd7565b9150612c1e83612cd7565b925082612c2e57612c2d612e2f565b5b828204905092915050565b6000612c4482612cd7565b9150612c4f83612cd7565b925082821015612c6257612c61612e00565b5b828203905092915050565b6000612c7882612cb7565b9050919050565b60008115159050919050565b60007fffffffff0000000000000000000000000000000000000000000000000000000082169050919050565b600073ffffffffffffffffffffffffffffffffffffffff82169050919050565b6000819050919050565b82818337600083830152505050565b60005b83811015612d0e578082015181840152602081019050612cf3565b83811115612d1d576000848401525b50505050565b60006002820490506001821680612d3b57607f821691505b60208210811415612d4f57612d4e612e5e565b5b50919050565b612d5e82612ebc565b810181811067ffffffffffffffff82111715612d7d57612d7c612e8d565b5b80604052505050565b6000612d9182612cd7565b91507fffffffffffffffffffffffffffffffffffffffffffffffffffffffffffffffff821415612dc457612dc3612e00565b5b600182019050919050565b6000612dda82612cd7565b9150612de583612cd7565b925082612df557612df4612e2f565b5b828206905092915050565b7f4e487b7100000000000000000000000000000000000000000000000000000000600052601160045260246000fd5b7f4e487b7100000000000000000000000000000000000000000000000000000000600052601260045260246000fd5b7f4e487b7100000000000000000000000000000000000000000000000000000000600052602260045260246000fd5b7f4e487b7100000000000000000000000000000000000000000000000000000000600052604160045260246000fd5b6000601f19601f8301169050919050565b7f4552433732313a207472616e7366657220746f206e6f6e20455243373231526560008201527f63656976657220696d706c656d656e7465720000000000000000000000000000602082015250565b7f4f776e61626c653a206e6577206f776e657220697320746865207a65726f206160008201527f6464726573730000000000000000000000000000000000000000000000000000602082015250565b7f4552433732313a20746f6b656e20616c7265616479206d696e74656400000000600082015250565b7f4552433732313a207472616e7366657220746f20746865207a65726f2061646460008201527f7265737300000000000000000000000000000000000000000000000000000000602082015250565b7f4552433732313a20617070726f766520746f2063616c6c657200000000000000600082015250565b7f4552433732313a206f70657261746f7220717565727920666f72206e6f6e657860008201527f697374656e7420746f6b656e0000000000000000000000000000000000000000602082015250565b7f4552433732313a20617070726f76652063616c6c6572206973206e6f74206f7760008201527f6e6572206e6f7220617070726f76656420666f7220616c6c0000000000000000602082015250565b7f4552433732313a2062616c616e636520717565727920666f7220746865207a6560008201527f726f206164647265737300000000000000000000000000000000000000000000602082015250565b7f4552433732313a206f776e657220717565727920666f72206e6f6e657869737460008201527f656e7420746f6b656e0000000000000000000000000000000000000000000000602082015250565b7f45524337323155524953746f726167653a2055524920736574206f66206e6f6e60008201527f6578697374656e7420746f6b656e000000000000000000000000000000000000602082015250565b7f496e697469616c697a61626c653a20636f6e747261637420697320616c72656160008201527f647920696e697469616c697a6564000000000000000000000000000000000000602082015250565b7f4552433732313a206d696e7420746f20746865207a65726f2061646472657373600082015250565b7f45524337323155524953746f726167653a2055524920717565727920666f722060008201527f6e6f6e6578697374656e7420746f6b656e000000000000000000000000000000602082015250565b7f4552433732313a20617070726f76656420717565727920666f72206e6f6e657860008201527f697374656e7420746f6b656e0000000000000000000000000000000000000000602082015250565b7f4f776e61626c653a2063616c6c6572206973206e6f7420746865206f776e6572600082015250565b7f4552433732313a207472616e73666572206f6620746f6b656e2074686174206960008201527f73206e6f74206f776e0000000000000000000000000000000000000000000000602082015250565b7f4552433732314d657461646174613a2055524920717565727920666f72206e6f60008201527f6e6578697374656e7420746f6b656e0000000000000000000000000000000000602082015250565b7f4552433732313a20617070726f76616c20746f2063757272656e74206f776e6560008201527f7200000000000000000000000000000000000000000000000000000000000000602082015250565b7f4552433732313a207472616e736665722063616c6c6572206973206e6f74206f60008201527f776e6572206e6f7220617070726f766564000000000000000000000000000000602082015250565b7f496e697469616c697a61626c653a20636f6e7472616374206973206e6f74206960008201527f6e697469616c697a696e67000000000000000000000000000000000000000000602082015250565b61346a81612c6d565b811461347557600080fd5b50565b61348181612c7f565b811461348c57600080fd5b50565b61349881612c8b565b81146134a357600080fd5b50565b6134af81612cd7565b81146134ba57600080fd5b5056fea2646970667358221220c5ba81b3c0cfc835fc3429a456da6baa8b314a8c786821994d13dd79749eaee264736f6c63430008030033",
  "linkReferences": {},
  "deployedLinkReferences": {}
}