{
  "_format": "hh-sol-artifact-1",
  "contractName": "OnChainNFT",
  "sourceName": "contracts/OnChainNFT.sol",
  "abi": [
    {
      "anonymous": false,
      "inputs": [
        {
          "indexed": true,
          "internalType": "address",
          "name": "owner",
          "type": "address"
        },
        {
          "indexed": true,
          "internalType": "address",
          "name": "approved",
          "type": "address"
        },
        {
          "indexed": true,
          "internalType": "uint256",
          "name": "tokenId",
          "type": "uint256"
        }
      ],
      "name": "Approval",
      "type": "event"
    },
    {
      "anonymous": false,
      "inputs": [
        {
          "indexed": true,
          "internalType": "address",
          "name": "owner",
          "type": "address"
        },
        {
          "indexed": true,
          "internalType": "address",
          "name": "operator",
          "type": "address"
        },
        {
          "indexed": false,
          "internalType": "bool",
          "name": "approved",
          "type": "bool"
        }
      ],
      "name": "ApprovalForAll",
      "type": "event"
    },
    {
      "anonymous": false,
      "inputs": [
        {
          "indexed": true,
          "internalType": "address",
          "name": "previousOwner",
          "type": "address"
        },
        {
          "indexed": true,
          "internalType": "address",
          "name": "newOwner",
          "type": "address"
        }
      ],
      "name": "OwnershipTransferred",
      "type": "event"
    },
    {
      "anonymous": false,
      "inputs": [
        {
          "indexed": true,
          "internalType": "address",
          "name": "from",
          "type": "address"
        },
        {
          "indexed": true,
          "internalType": "address",
          "name": "to",
          "type": "address"
        },
        {
          "indexed": true,
          "internalType": "uint256",
          "name": "tokenId",
          "type": "uint256"
        }
      ],
      "name": "Transfer",
      "type": "event"
    },
    {
      "inputs": [
        {
          "internalType": "address",
          "name": "to",
          "type": "address"
        },
        {
          "internalType": "uint256",
          "name": "tokenId",
          "type": "uint256"
        }
      ],
      "name": "approve",
      "outputs": [],
      "stateMutability": "nonpayable",
      "type": "function"
    },
    {
      "inputs": [
        {
          "internalType": "address",
          "name": "owner",
          "type": "address"
        }
      ],
      "name": "balanceOf",
      "outputs": [
        {
          "internalType": "uint256",
          "name": "",
          "type": "uint256"
        }
      ],
      "stateMutability": "view",
      "type": "function"
    },
    {
      "inputs": [
        {
          "internalType": "uint256",
          "name": "tokenId",
          "type": "uint256"
        }
      ],
      "name": "getApproved",
      "outputs": [
        {
          "internalType": "address",
          "name": "",
          "type": "address"
        }
      ],
      "stateMutability": "view",
      "type": "function"
    },
    {
      "inputs": [],
      "name": "getLatestTokenId",
      "outputs": [
        {
          "internalType": "uint256",
          "name": "",
          "type": "uint256"
        }
      ],
      "stateMutability": "view",
      "type": "function"
    },
    {
      "inputs": [],
      "name": "initialize",
      "outputs": [],
      "stateMutability": "nonpayable",
      "type": "function"
    },
    {
      "inputs": [
        {
          "internalType": "address",
          "name": "owner",
          "type": "address"
        },
        {
          "internalType": "address",
          "name": "operator",
          "type": "address"
        }
      ],
      "name": "isApprovedForAll",
      "outputs": [
        {
          "internalType": "bool",
          "name": "",
          "type": "bool"
        }
      ],
      "stateMutability": "view",
      "type": "function"
    },
    {
      "inputs": [
        {
          "internalType": "address",
          "name": "recipient",
          "type": "address"
        },
        {
          "internalType": "string",
          "name": "tokenURI",
          "type": "string"
        }
      ],
      "name": "mintNFT",
      "outputs": [
        {
          "internalType": "uint256",
          "name": "",
          "type": "uint256"
        }
      ],
      "stateMutability": "nonpayable",
      "type": "function"
    },
    {
      "inputs": [],
      "name": "name",
      "outputs": [
        {
          "internalType": "string",
          "name": "",
          "type": "string"
        }
      ],
      "stateMutability": "view",
      "type": "function"
    },
    {
      "inputs": [],
      "name": "owner",
      "outputs": [
        {
          "internalType": "address",
          "name": "",
          "type": "address"
        }
      ],
      "stateMutability": "view",
      "type": "function"
    },
    {
      "inputs": [
        {
          "internalType": "uint256",
          "name": "tokenId",
          "type": "uint256"
        }
      ],
      "name": "ownerOf",
      "outputs": [
        {
          "internalType": "address",
          "name": "",
          "type": "address"
        }
      ],
      "stateMutability": "view",
      "type": "function"
    },
    {
      "inputs": [],
      "name": "renounceOwnership",
      "outputs": [],
      "stateMutability": "nonpayable",
      "type": "function"
    },
    {
      "inputs": [
        {
          "internalType": "address",
          "name": "from",
          "type": "address"
        },
        {
          "internalType": "address",
          "name": "to",
          "type": "address"
        },
        {
          "internalType": "uint256",
          "name": "tokenId",
          "type": "uint256"
        }
      ],
      "name": "safeTransferFrom",
      "outputs": [],
      "stateMutability": "nonpayable",
      "type": "function"
    },
    {
      "inputs": [
        {
          "internalType": "address",
          "name": "from",
          "type": "address"
        },
        {
          "internalType": "address",
          "name": "to",
          "type": "address"
        },
        {
          "internalType": "uint256",
          "name": "tokenId",
          "type": "uint256"
        },
        {
          "internalType": "bytes",
          "name": "_data",
          "type": "bytes"
        }
      ],
      "name": "safeTransferFrom",
      "outputs": [],
      "stateMutability": "nonpayable",
      "type": "function"
    },
    {
      "inputs": [
        {
          "internalType": "address",
          "name": "operator",
          "type": "address"
        },
        {
          "internalType": "bool",
          "name": "approved",
          "type": "bool"
        }
      ],
      "name": "setApprovalForAll",
      "outputs": [],
      "stateMutability": "nonpayable",
      "type": "function"
    },
    {
      "inputs": [
        {
          "internalType": "bytes4",
          "name": "interfaceId",
          "type": "bytes4"
        }
      ],
      "name": "supportsInterface",
      "outputs": [
        {
          "internalType": "bool",
          "name": "",
          "type": "bool"
        }
      ],
      "stateMutability": "view",
      "type": "function"
    },
    {
      "inputs": [],
      "name": "symbol",
      "outputs": [
        {
          "internalType": "string",
          "name": "",
          "type": "string"
        }
      ],
      "stateMutability": "view",
      "type": "function"
    },
    {
      "inputs": [
        {
          "internalType": "uint256",
          "name": "tokenId",
          "type": "uint256"
        }
      ],
      "name": "tokenURI",
      "outputs": [
        {
          "internalType": "string",
          "name": "",
          "type": "string"
        }
      ],
      "stateMutability": "view",
      "type": "function"
    },
    {
      "inputs": [
        {
          "internalType": "address",
          "name": "from",
          "type": "address"
        },
        {
          "internalType": "address",
          "name": "to",
          "type": "address"
        },
        {
          "internalType": "uint256",
          "name": "tokenId",
          "type": "uint256"
        }
      ],
      "name": "transferFrom",
      "outputs": [],
      "stateMutability": "nonpayable",
      "type": "function"
    },
    {
      "inputs": [
        {
          "internalType": "address",
          "name": "newOwner",
          "type": "address"
        }
      ],
      "name": "transferOwnership",
      "outputs": [],
      "stateMutability": "nonpayable",
      "type": "function"
    }
  ],
  "bytecode": "0x608060405234801561001057600080fd5b50613713806100206000396000f3fe608060405234801561001057600080fd5b50600436106101215760003560e01c8063715018a6116100ad578063b88d4fde11610071578063b88d4fde146102e2578063c87b56dd146102fe578063e985e9c51461032e578063eacabe141461035e578063f2fde38b1461038e57610121565b8063715018a6146102765780638129fc1c146102805780638da5cb5b1461028a57806395d89b41146102a8578063a22cb465146102c657610121565b806323b872dd116100f457806323b872dd146101c057806325d112a9146101dc57806342842e0e146101fa5780636352211e1461021657806370a082311461024657610121565b806301ffc9a71461012657806306fdde0314610156578063081812fc14610174578063095ea7b3146101a4575b600080fd5b610140600480360381019061013b919061251d565b6103aa565b60405161014d9190612a1e565b60405180910390f35b61015e61048c565b60405161016b9190612a39565b60405180910390f35b61018e6004803603810190610189919061256f565b61051e565b60405161019b9190612980565b60405180910390f35b6101be60048036038101906101b991906124b8565b6105a3565b005b6101da60048036038101906101d5919061235e565b6106bb565b005b6101e461071b565b6040516101f19190612cdb565b60405180910390f35b610214600480360381019061020f919061235e565b61072c565b005b610230600480360381019061022b919061256f565b61074c565b60405161023d9190612980565b60405180910390f35b610260600480360381019061025b91906122f9565b6107fe565b60405161026d9190612cdb565b60405180910390f35b61027e6108b6565b005b61028861093e565b005b610292610af3565b60405161029f9190612980565b60405180910390f35b6102b0610b1d565b6040516102bd9190612a39565b60405180910390f35b6102e060048036038101906102db9190612428565b610baf565b005b6102fc60048036038101906102f791906123ad565b610bc5565b005b6103186004803603810190610313919061256f565b610c27565b6040516103259190612a39565b60405180910390f35b61034860048036038101906103439190612322565b610d79565b6040516103559190612a1e565b60405180910390f35b61037860048036038101906103739190612464565b610e0d565b6040516103859190612cdb565b60405180910390f35b6103a860048036038101906103a391906122f9565b610fb8565b005b60007f80ac58cd000000000000000000000000000000000000000000000000000000007bffffffffffffffffffffffffffffffffffffffffffffffffffffffff1916827bffffffffffffffffffffffffffffffffffffffffffffffffffffffff1916148061047557507f5b5e139f000000000000000000000000000000000000000000000000000000007bffffffffffffffffffffffffffffffffffffffffffffffffffffffff1916827bffffffffffffffffffffffffffffffffffffffffffffffffffffffff1916145b806104855750610484826110b0565b5b9050919050565b60606065805461049b90612f43565b80601f01602080910402602001604051908101604052809291908181526020018280546104c790612f43565b80156105145780601f106104e957610100808354040283529160200191610514565b820191906000526020600020905b8154815290600101906020018083116104f757829003601f168201915b5050505050905090565b60006105298261111a565b610568576040517f08c379a000000000000000000000000000000000000000000000000000000000815260040161055f90612bfb565b60405180910390fd5b6069600083815260200190815260200160002060009054906101000a900473ffffffffffffffffffffffffffffffffffffffff169050919050565b60006105ae8261074c565b90508073ffffffffffffffffffffffffffffffffffffffff168373ffffffffffffffffffffffffffffffffffffffff16141561061f576040517f08c379a000000000000000000000000000000000000000000000000000000000815260040161061690612c7b565b60405180910390fd5b8073ffffffffffffffffffffffffffffffffffffffff1661063e611186565b73ffffffffffffffffffffffffffffffffffffffff16148061066d575061066c81610667611186565b610d79565b5b6106ac576040517f08c379a00000000000000000000000000000000000000000000000000000000081526004016106a390612b1b565b60405180910390fd5b6106b6838361118e565b505050565b6106cc6106c6611186565b82611247565b61070b576040517f08c379a000000000000000000000000000000000000000000000000000000000815260040161070290612c9b565b60405180910390fd5b610716838383611325565b505050565b600061072760fb611581565b905090565b61074783838360405180602001604052806000815250610bc5565b505050565b6000806067600084815260200190815260200160002060009054906101000a900473ffffffffffffffffffffffffffffffffffffffff169050600073ffffffffffffffffffffffffffffffffffffffff168173ffffffffffffffffffffffffffffffffffffffff1614156107f5576040517f08c379a00000000000000000000000000000000000000000000000000000000081526004016107ec90612b5b565b60405180910390fd5b80915050919050565b60008073ffffffffffffffffffffffffffffffffffffffff168273ffffffffffffffffffffffffffffffffffffffff16141561086f576040517f08c379a000000000000000000000000000000000000000000000000000000000815260040161086690612b3b565b60405180910390fd5b606860008373ffffffffffffffffffffffffffffffffffffffff1673ffffffffffffffffffffffffffffffffffffffff168152602001908152602001600020549050919050565b6108be611186565b73ffffffffffffffffffffffffffffffffffffffff166108dc610af3565b73ffffffffffffffffffffffffffffffffffffffff1614610932576040517f08c379a000000000000000000000000000000000000000000000000000000000815260040161092990612c1b565b60405180910390fd5b61093c600061158f565b565b600060019054906101000a900460ff166109665760008054906101000a900460ff161561096f565b61096e611655565b5b6109ae576040517f08c379a00000000000000000000000000000000000000000000000000000000081526004016109a590612b9b565b60405180910390fd5b60008060019054906101000a900460ff1615905080156109fe576001600060016101000a81548160ff02191690831515021790555060016000806101000a81548160ff0219169083151502179055505b610a726040518060400160405280600a81526020017f4f6e436861696e4e4654000000000000000000000000000000000000000000008152506040518060400160405280600381526020017f4e46540000000000000000000000000000000000000000000000000000000000815250611666565b610a7a6116d3565b7387f789c95a137f915da83acd32bbb3724631f99760fc60006101000a81548173ffffffffffffffffffffffffffffffffffffffff021916908373ffffffffffffffffffffffffffffffffffffffff1602179055508015610af05760008060016101000a81548160ff0219169083151502179055505b50565b600060c960009054906101000a900473ffffffffffffffffffffffffffffffffffffffff16905090565b606060668054610b2c90612f43565b80601f0160208091040260200160405190810160405280929190818152602001828054610b5890612f43565b8015610ba55780601f10610b7a57610100808354040283529160200191610ba5565b820191906000526020600020905b815481529060010190602001808311610b8857829003601f168201915b5050505050905090565b610bc1610bba611186565b8383611734565b5050565b610bd6610bd0611186565b83611247565b610c15576040517f08c379a0000000000000000000000000000000000000000000000000000000008152600401610c0c90612c9b565b60405180910390fd5b610c21848484846118a1565b50505050565b6060610c328261111a565b610c71576040517f08c379a0000000000000000000000000000000000000000000000000000000008152600401610c6890612bdb565b60405180910390fd5b6000609760008481526020019081526020016000208054610c9190612f43565b80601f0160208091040260200160405190810160405280929190818152602001828054610cbd90612f43565b8015610d0a5780601f10610cdf57610100808354040283529160200191610d0a565b820191906000526020600020905b815481529060010190602001808311610ced57829003601f168201915b505050505090506000610d1b6118fd565b9050600081511415610d31578192505050610d74565b600082511115610d66578082604051602001610d4e92919061295c565b60405160208183030381529060405292505050610d74565b610d6f84611914565b925050505b919050565b6000606a60008473ffffffffffffffffffffffffffffffffffffffff1673ffffffffffffffffffffffffffffffffffffffff16815260200190815260200160002060008373ffffffffffffffffffffffffffffffffffffffff1673ffffffffffffffffffffffffffffffffffffffff16815260200190815260200160002060009054906101000a900460ff16905092915050565b6000670de0b6b3a764000060fc60009054906101000a900473ffffffffffffffffffffffffffffffffffffffff1673ffffffffffffffffffffffffffffffffffffffff166370a08231336040518263ffffffff1660e01b8152600401610e739190612980565b60206040518083038186803b158015610e8b57600080fd5b505afa158015610e9f573d6000803e3d6000fd5b505050506040513d601f19601f82011682018060405250810190610ec39190612598565b1015610ece57600080fd5b610ed860fb6119bb565b6000610ee460fb611581565b9050610ef084826119d1565b610efa8184611b9f565b60fc60009054906101000a900473ffffffffffffffffffffffffffffffffffffffff1673ffffffffffffffffffffffffffffffffffffffff166323b872dd33600060016040518463ffffffff1660e01b8152600401610f5b9392919061299b565b602060405180830381600087803b158015610f7557600080fd5b505af1158015610f89573d6000803e3d6000fd5b505050506040513d601f19601f82011682018060405250810190610fad91906124f4565b508091505092915050565b610fc0611186565b73ffffffffffffffffffffffffffffffffffffffff16610fde610af3565b73ffffffffffffffffffffffffffffffffffffffff1614611034576040517f08c379a000000000000000000000000000000000000000000000000000000000815260040161102b90612c1b565b60405180910390fd5b600073ffffffffffffffffffffffffffffffffffffffff168173ffffffffffffffffffffffffffffffffffffffff1614156110a4576040517f08c379a000000000000000000000000000000000000000000000000000000000815260040161109b90612a7b565b60405180910390fd5b6110ad8161158f565b50565b60007f01ffc9a7000000000000000000000000000000000000000000000000000000007bffffffffffffffffffffffffffffffffffffffffffffffffffffffff1916827bffffffffffffffffffffffffffffffffffffffffffffffffffffffff1916149050919050565b60008073ffffffffffffffffffffffffffffffffffffffff166067600084815260200190815260200160002060009054906101000a900473ffffffffffffffffffffffffffffffffffffffff1673ffffffffffffffffffffffffffffffffffffffff1614159050919050565b600033905090565b816069600083815260200190815260200160002060006101000a81548173ffffffffffffffffffffffffffffffffffffffff021916908373ffffffffffffffffffffffffffffffffffffffff160217905550808273ffffffffffffffffffffffffffffffffffffffff166112018361074c565b73ffffffffffffffffffffffffffffffffffffffff167f8c5be1e5ebec7d5bd14f71427d1e84f3dd0314c0f7b2291e5b200ac8c7c3b92560405160405180910390a45050565b60006112528261111a565b611291576040517f08c379a000000000000000000000000000000000000000000000000000000000815260040161128890612afb565b60405180910390fd5b600061129c8361074c565b90508073ffffffffffffffffffffffffffffffffffffffff168473ffffffffffffffffffffffffffffffffffffffff16148061130b57508373ffffffffffffffffffffffffffffffffffffffff166112f38461051e565b73ffffffffffffffffffffffffffffffffffffffff16145b8061131c575061131b8185610d79565b5b91505092915050565b8273ffffffffffffffffffffffffffffffffffffffff166113458261074c565b73ffffffffffffffffffffffffffffffffffffffff161461139b576040517f08c379a000000000000000000000000000000000000000000000000000000000815260040161139290612c3b565b60405180910390fd5b600073ffffffffffffffffffffffffffffffffffffffff168273ffffffffffffffffffffffffffffffffffffffff16141561140b576040517f08c379a000000000000000000000000000000000000000000000000000000000815260040161140290612abb565b60405180910390fd5b611416838383611c13565b61142160008261118e565b6001606860008573ffffffffffffffffffffffffffffffffffffffff1673ffffffffffffffffffffffffffffffffffffffff16815260200190815260200160002060008282546114719190612e47565b925050819055506001606860008473ffffffffffffffffffffffffffffffffffffffff1673ffffffffffffffffffffffffffffffffffffffff16815260200190815260200160002060008282546114c89190612dc0565b92505081905550816067600083815260200190815260200160002060006101000a81548173ffffffffffffffffffffffffffffffffffffffff021916908373ffffffffffffffffffffffffffffffffffffffff160217905550808273ffffffffffffffffffffffffffffffffffffffff168473ffffffffffffffffffffffffffffffffffffffff167fddf252ad1be2c89b69c2b068fc378daa952ba7f163c4a11628f55a4df523b3ef60405160405180910390a4505050565b600081600001549050919050565b600060c960009054906101000a900473ffffffffffffffffffffffffffffffffffffffff1690508160c960006101000a81548173ffffffffffffffffffffffffffffffffffffffff021916908373ffffffffffffffffffffffffffffffffffffffff1602179055508173ffffffffffffffffffffffffffffffffffffffff168173ffffffffffffffffffffffffffffffffffffffff167f8be0079c531659141344cd1fd0a4f28419497f9722a3daafe3b4186f6b6457e060405160405180910390a35050565b600061166030611c18565b15905090565b600060019054906101000a900460ff166116b5576040517f08c379a00000000000000000000000000000000000000000000000000000000081526004016116ac90612cbb565b60405180910390fd5b6116bd611c2b565b6116c5611c7c565b6116cf8282611ccd565b5050565b600060019054906101000a900460ff16611722576040517f08c379a000000000000000000000000000000000000000000000000000000000815260040161171990612cbb565b60405180910390fd5b61172a611c2b565b611732611d4e565b565b8173ffffffffffffffffffffffffffffffffffffffff168373ffffffffffffffffffffffffffffffffffffffff1614156117a3576040517f08c379a000000000000000000000000000000000000000000000000000000000815260040161179a90612adb565b60405180910390fd5b80606a60008573ffffffffffffffffffffffffffffffffffffffff1673ffffffffffffffffffffffffffffffffffffffff16815260200190815260200160002060008473ffffffffffffffffffffffffffffffffffffffff1673ffffffffffffffffffffffffffffffffffffffff16815260200190815260200160002060006101000a81548160ff0219169083151502179055508173ffffffffffffffffffffffffffffffffffffffff168373ffffffffffffffffffffffffffffffffffffffff167f17307eab39ab6107e8899845ad3d59bd9653f200f220920489ca2b5937696c31836040516118949190612a1e565b60405180910390a3505050565b6118ac848484611325565b6118b884848484611daf565b6118f7576040517f08c379a00000000000000000000000000000000000000000000000000000000081526004016118ee90612a5b565b60405180910390fd5b50505050565b606060405180602001604052806000815250905090565b606061191f8261111a565b61195e576040517f08c379a000000000000000000000000000000000000000000000000000000000815260040161195590612c5b565b60405180910390fd5b60006119686118fd565b9050600081511161198857604051806020016040528060008152506119b3565b8061199284611f46565b6040516020016119a392919061295c565b6040516020818303038152906040525b915050919050565b6001816000016000828254019250508190555050565b600073ffffffffffffffffffffffffffffffffffffffff168273ffffffffffffffffffffffffffffffffffffffff161415611a41576040517f08c379a0000000000000000000000000000000000000000000000000000000008152600401611a3890612bbb565b60405180910390fd5b611a4a8161111a565b15611a8a576040517f08c379a0000000000000000000000000000000000000000000000000000000008152600401611a8190612a9b565b60405180910390fd5b611a9660008383611c13565b6001606860008473ffffffffffffffffffffffffffffffffffffffff1673ffffffffffffffffffffffffffffffffffffffff1681526020019081526020016000206000828254611ae69190612dc0565b92505081905550816067600083815260200190815260200160002060006101000a81548173ffffffffffffffffffffffffffffffffffffffff021916908373ffffffffffffffffffffffffffffffffffffffff160217905550808273ffffffffffffffffffffffffffffffffffffffff16600073ffffffffffffffffffffffffffffffffffffffff167fddf252ad1be2c89b69c2b068fc378daa952ba7f163c4a11628f55a4df523b3ef60405160405180910390a45050565b611ba88261111a565b611be7576040517f08c379a0000000000000000000000000000000000000000000000000000000008152600401611bde90612b7b565b60405180910390fd5b80609760008481526020019081526020016000209080519060200190611c0e9291906120f3565b505050565b505050565b600080823b905060008111915050919050565b600060019054906101000a900460ff16611c7a576040517f08c379a0000000000000000000000000000000000000000000000000000000008152600401611c7190612cbb565b60405180910390fd5b565b600060019054906101000a900460ff16611ccb576040517f08c379a0000000000000000000000000000000000000000000000000000000008152600401611cc290612cbb565b60405180910390fd5b565b600060019054906101000a900460ff16611d1c576040517f08c379a0000000000000000000000000000000000000000000000000000000008152600401611d1390612cbb565b60405180910390fd5b8160659080519060200190611d329291906120f3565b508060669080519060200190611d499291906120f3565b505050565b600060019054906101000a900460ff16611d9d576040517f08c379a0000000000000000000000000000000000000000000000000000000008152600401611d9490612cbb565b60405180910390fd5b611dad611da8611186565b61158f565b565b6000611dd08473ffffffffffffffffffffffffffffffffffffffff16611c18565b15611f39578373ffffffffffffffffffffffffffffffffffffffff1663150b7a02611df9611186565b8786866040518563ffffffff1660e01b8152600401611e1b94939291906129d2565b602060405180830381600087803b158015611e3557600080fd5b505af1925050508015611e6657506040513d601f19601f82011682018060405250810190611e639190612546565b60015b611ee9573d8060008114611e96576040519150601f19603f3d011682016040523d82523d6000602084013e611e9b565b606091505b50600081511415611ee1576040517f08c379a0000000000000000000000000000000000000000000000000000000008152600401611ed890612a5b565b60405180910390fd5b805181602001fd5b63150b7a0260e01b7bffffffffffffffffffffffffffffffffffffffffffffffffffffffff1916817bffffffffffffffffffffffffffffffffffffffffffffffffffffffff191614915050611f3e565b600190505b949350505050565b60606000821415611f8e576040518060400160405280600181526020017f300000000000000000000000000000000000000000000000000000000000000081525090506120ee565b600082905060005b60008214611fc0578080611fa990612fa6565b915050600a82611fb99190612e16565b9150611f96565b60008167ffffffffffffffff811115612002577f4e487b7100000000000000000000000000000000000000000000000000000000600052604160045260246000fd5b6040519080825280601f01601f1916602001820160405280156120345781602001600182028036833780820191505090505b5090505b600085146120e75760018261204d9190612e47565b9150600a8561205c9190612fef565b60306120689190612dc0565b60f81b8183815181106120a4577f4e487b7100000000000000000000000000000000000000000000000000000000600052603260045260246000fd5b60200101907effffffffffffffffffffffffffffffffffffffffffffffffffffffffffffff1916908160001a905350600a856120e09190612e16565b9450612038565b8093505050505b919050565b8280546120ff90612f43565b90600052602060002090601f0160209004810192826121215760008555612168565b82601f1061213a57805160ff1916838001178555612168565b82800160010185558215612168579182015b8281111561216757825182559160200191906001019061214c565b5b5090506121759190612179565b5090565b5b8082111561219257600081600090555060010161217a565b5090565b60006121a96121a484612d1b565b612cf6565b9050828152602081018484840111156121c157600080fd5b6121cc848285612f01565b509392505050565b60006121e76121e284612d4c565b612cf6565b9050828152602081018484840111156121ff57600080fd5b61220a848285612f01565b509392505050565b60008135905061222181613681565b92915050565b60008135905061223681613698565b92915050565b60008151905061224b81613698565b92915050565b600081359050612260816136af565b92915050565b600081519050612275816136af565b92915050565b600082601f83011261228c57600080fd5b813561229c848260208601612196565b91505092915050565b600082601f8301126122b657600080fd5b81356122c68482602086016121d4565b91505092915050565b6000813590506122de816136c6565b92915050565b6000815190506122f3816136c6565b92915050565b60006020828403121561230b57600080fd5b600061231984828501612212565b91505092915050565b6000806040838503121561233557600080fd5b600061234385828601612212565b925050602061235485828601612212565b9150509250929050565b60008060006060848603121561237357600080fd5b600061238186828701612212565b935050602061239286828701612212565b92505060406123a3868287016122cf565b9150509250925092565b600080600080608085870312156123c357600080fd5b60006123d187828801612212565b94505060206123e287828801612212565b93505060406123f3878288016122cf565b925050606085013567ffffffffffffffff81111561241057600080fd5b61241c8782880161227b565b91505092959194509250565b6000806040838503121561243b57600080fd5b600061244985828601612212565b925050602061245a85828601612227565b9150509250929050565b6000806040838503121561247757600080fd5b600061248585828601612212565b925050602083013567ffffffffffffffff8111156124a257600080fd5b6124ae858286016122a5565b9150509250929050565b600080604083850312156124cb57600080fd5b60006124d985828601612212565b92505060206124ea858286016122cf565b9150509250929050565b60006020828403121561250657600080fd5b60006125148482850161223c565b91505092915050565b60006020828403121561252f57600080fd5b600061253d84828501612251565b91505092915050565b60006020828403121561255857600080fd5b600061256684828501612266565b91505092915050565b60006020828403121561258157600080fd5b600061258f848285016122cf565b91505092915050565b6000602082840312156125aa57600080fd5b60006125b8848285016122e4565b91505092915050565b6125ca81612e7b565b82525050565b6125d981612e8d565b82525050565b60006125ea82612d7d565b6125f48185612d93565b9350612604818560208601612f10565b61260d816130dc565b840191505092915050565b61262181612eef565b82525050565b600061263282612d88565b61263c8185612da4565b935061264c818560208601612f10565b612655816130dc565b840191505092915050565b600061266b82612d88565b6126758185612db5565b9350612685818560208601612f10565b80840191505092915050565b600061269e603283612da4565b91506126a9826130ed565b604082019050919050565b60006126c1602683612da4565b91506126cc8261313c565b604082019050919050565b60006126e4601c83612da4565b91506126ef8261318b565b602082019050919050565b6000612707602483612da4565b9150612712826131b4565b604082019050919050565b600061272a601983612da4565b915061273582613203565b602082019050919050565b600061274d602c83612da4565b91506127588261322c565b604082019050919050565b6000612770603883612da4565b915061277b8261327b565b604082019050919050565b6000612793602a83612da4565b915061279e826132ca565b604082019050919050565b60006127b6602983612da4565b91506127c182613319565b604082019050919050565b60006127d9602e83612da4565b91506127e482613368565b604082019050919050565b60006127fc602e83612da4565b9150612807826133b7565b604082019050919050565b600061281f602083612da4565b915061282a82613406565b602082019050919050565b6000612842603183612da4565b915061284d8261342f565b604082019050919050565b6000612865602c83612da4565b91506128708261347e565b604082019050919050565b6000612888602083612da4565b9150612893826134cd565b602082019050919050565b60006128ab602983612da4565b91506128b6826134f6565b604082019050919050565b60006128ce602f83612da4565b91506128d982613545565b604082019050919050565b60006128f1602183612da4565b91506128fc82613594565b604082019050919050565b6000612914603183612da4565b915061291f826135e3565b604082019050919050565b6000612937602b83612da4565b915061294282613632565b604082019050919050565b61295681612ee5565b82525050565b60006129688285612660565b91506129748284612660565b91508190509392505050565b600060208201905061299560008301846125c1565b92915050565b60006060820190506129b060008301866125c1565b6129bd60208301856125c1565b6129ca6040830184612618565b949350505050565b60006080820190506129e760008301876125c1565b6129f460208301866125c1565b612a01604083018561294d565b8181036060830152612a1381846125df565b905095945050505050565b6000602082019050612a3360008301846125d0565b92915050565b60006020820190508181036000830152612a538184612627565b905092915050565b60006020820190508181036000830152612a7481612691565b9050919050565b60006020820190508181036000830152612a94816126b4565b9050919050565b60006020820190508181036000830152612ab4816126d7565b9050919050565b60006020820190508181036000830152612ad4816126fa565b9050919050565b60006020820190508181036000830152612af48161271d565b9050919050565b60006020820190508181036000830152612b1481612740565b9050919050565b60006020820190508181036000830152612b3481612763565b9050919050565b60006020820190508181036000830152612b5481612786565b9050919050565b60006020820190508181036000830152612b74816127a9565b9050919050565b60006020820190508181036000830152612b94816127cc565b9050919050565b60006020820190508181036000830152612bb4816127ef565b9050919050565b60006020820190508181036000830152612bd481612812565b9050919050565b60006020820190508181036000830152612bf481612835565b9050919050565b60006020820190508181036000830152612c1481612858565b9050919050565b60006020820190508181036000830152612c348161287b565b9050919050565b60006020820190508181036000830152612c548161289e565b9050919050565b60006020820190508181036000830152612c74816128c1565b9050919050565b60006020820190508181036000830152612c94816128e4565b9050919050565b60006020820190508181036000830152612cb481612907565b9050919050565b60006020820190508181036000830152612cd48161292a565b9050919050565b6000602082019050612cf0600083018461294d565b92915050565b6000612d00612d11565b9050612d0c8282612f75565b919050565b6000604051905090565b600067ffffffffffffffff821115612d3657612d356130ad565b5b612d3f826130dc565b9050602081019050919050565b600067ffffffffffffffff821115612d6757612d666130ad565b5b612d70826130dc565b9050602081019050919050565b600081519050919050565b600081519050919050565b600082825260208201905092915050565b600082825260208201905092915050565b600081905092915050565b6000612dcb82612ee5565b9150612dd683612ee5565b9250827fffffffffffffffffffffffffffffffffffffffffffffffffffffffffffffffff03821115612e0b57612e0a613020565b5b828201905092915050565b6000612e2182612ee5565b9150612e2c83612ee5565b925082612e3c57612e3b61304f565b5b828204905092915050565b6000612e5282612ee5565b9150612e5d83612ee5565b925082821015612e7057612e6f613020565b5b828203905092915050565b6000612e8682612ec5565b9050919050565b60008115159050919050565b60007fffffffff0000000000000000000000000000000000000000000000000000000082169050919050565b600073ffffffffffffffffffffffffffffffffffffffff82169050919050565b6000819050919050565b6000612efa82612ee5565b9050919050565b82818337600083830152505050565b60005b83811015612f2e578082015181840152602081019050612f13565b83811115612f3d576000848401525b50505050565b60006002820490506001821680612f5b57607f821691505b60208210811415612f6f57612f6e61307e565b5b50919050565b612f7e826130dc565b810181811067ffffffffffffffff82111715612f9d57612f9c6130ad565b5b80604052505050565b6000612fb182612ee5565b91507fffffffffffffffffffffffffffffffffffffffffffffffffffffffffffffffff821415612fe457612fe3613020565b5b600182019050919050565b6000612ffa82612ee5565b915061300583612ee5565b9250826130155761301461304f565b5b828206905092915050565b7f4e487b7100000000000000000000000000000000000000000000000000000000600052601160045260246000fd5b7f4e487b7100000000000000000000000000000000000000000000000000000000600052601260045260246000fd5b7f4e487b7100000000000000000000000000000000000000000000000000000000600052602260045260246000fd5b7f4e487b7100000000000000000000000000000000000000000000000000000000600052604160045260246000fd5b6000601f19601f8301169050919050565b7f4552433732313a207472616e7366657220746f206e6f6e20455243373231526560008201527f63656976657220696d706c656d656e7465720000000000000000000000000000602082015250565b7f4f776e61626c653a206e6577206f776e657220697320746865207a65726f206160008201527f6464726573730000000000000000000000000000000000000000000000000000602082015250565b7f4552433732313a20746f6b656e20616c7265616479206d696e74656400000000600082015250565b7f4552433732313a207472616e7366657220746f20746865207a65726f2061646460008201527f7265737300000000000000000000000000000000000000000000000000000000602082015250565b7f4552433732313a20617070726f766520746f2063616c6c657200000000000000600082015250565b7f4552433732313a206f70657261746f7220717565727920666f72206e6f6e657860008201527f697374656e7420746f6b656e0000000000000000000000000000000000000000602082015250565b7f4552433732313a20617070726f76652063616c6c6572206973206e6f74206f7760008201527f6e6572206e6f7220617070726f76656420666f7220616c6c0000000000000000602082015250565b7f4552433732313a2062616c616e636520717565727920666f7220746865207a6560008201527f726f206164647265737300000000000000000000000000000000000000000000602082015250565b7f4552433732313a206f776e657220717565727920666f72206e6f6e657869737460008201527f656e7420746f6b656e0000000000000000000000000000000000000000000000602082015250565b7f45524337323155524953746f726167653a2055524920736574206f66206e6f6e60008201527f6578697374656e7420746f6b656e000000000000000000000000000000000000602082015250565b7f496e697469616c697a61626c653a20636f6e747261637420697320616c72656160008201527f647920696e697469616c697a6564000000000000000000000000000000000000602082015250565b7f4552433732313a206d696e7420746f20746865207a65726f2061646472657373600082015250565b7f45524337323155524953746f726167653a2055524920717565727920666f722060008201527f6e6f6e6578697374656e7420746f6b656e000000000000000000000000000000602082015250565b7f4552433732313a20617070726f76656420717565727920666f72206e6f6e657860008201527f697374656e7420746f6b656e0000000000000000000000000000000000000000602082015250565b7f4f776e61626c653a2063616c6c6572206973206e6f7420746865206f776e6572600082015250565b7f4552433732313a207472616e73666572206f6620746f6b656e2074686174206960008201527f73206e6f74206f776e0000000000000000000000000000000000000000000000602082015250565b7f4552433732314d657461646174613a2055524920717565727920666f72206e6f60008201527f6e6578697374656e7420746f6b656e0000000000000000000000000000000000602082015250565b7f4552433732313a20617070726f76616c20746f2063757272656e74206f776e6560008201527f7200000000000000000000000000000000000000000000000000000000000000602082015250565b7f4552433732313a207472616e736665722063616c6c6572206973206e6f74206f60008201527f776e6572206e6f7220617070726f766564000000000000000000000000000000602082015250565b7f496e697469616c697a61626c653a20636f6e7472616374206973206e6f74206960008201527f6e697469616c697a696e67000000000000000000000000000000000000000000602082015250565b61368a81612e7b565b811461369557600080fd5b50565b6136a181612e8d565b81146136ac57600080fd5b50565b6136b881612e99565b81146136c357600080fd5b50565b6136cf81612ee5565b81146136da57600080fd5b5056fea2646970667358221220b1a1e94e0b8daa8f284f3026d066b465062143ca853ee05b00f1885aadc8c28964736f6c63430008030033",
  "linkReferences": {},
  "deployedLinkReferences": {}
}